S02B00002F686F6D652F6174762F7372632F7274313137362D73646B2F626F617264732F65766B6D696D78726C
S3152025000000E0272025072520A5042520E1282520D1
S31520250010A1042520A1042520A104252000000000D7
S31520250020000000000000000000000000AD0425208F
S31520250030A104252000000000B1042520B504252093
S31520250040B9042520BD042520C1042520C504252045
S31520250050C9042520CD042520D1042520D5042520F5
S31520250060D9042520DD042520E1042520E5042520A5
S31520250070E9042520ED042520F1042520F504252055
S31520250080F9042520A1042520A1042520A104252025
S31520250090CD552520010525200505252009052520C1
S315202500A00D05252011052520150525201905252091
S315202500B01D05252021052520250525202905252041
S315202500C02D052520310525203505252039052520F1
S315202500D03D052520410525204505252049052520A1
S315202500E04D05252051052520550525205905252051
S315202500F05D05252061052520650525206905252001
S315202501006D05252071052520A1042520A10425205E
S31520250110A1042520A1042520A1042520A1042520EC
S31520250120A1042520A1042520A1042520A1042520DC
S31520250130A1042520A1042520A1042520A1042520CC
S31520250140A1042520A1042520A1042520A1042520BC
S31520250150A1042520A1042520A1042520A1042520AC
S31520250160A1042520A1042520A1042520A10425209C
S3152025017075052520790525207D0525208105252020
S3152025018085052520890525208D052520A1042520C1
S31520250190A1042520A1042520A1042520A10425206C
S315202501A0A1042520A1042520A1042520A10425205C
S315202501B0A1042520A1042520A1042520A10425204C
S315202501C0A104252091052520A1042520A10425204B
S315202501D0A1042520A1042520A1042520A10425202C
S315202501E0A104252031542520A1042520A10425203C
S315202501F0A1042520A104252095052520990525201E
S31520250200A1042520A1042520A1042520A1042520FB
S31520250210A1042520A1042520A1042520A1042520EB
S31520250220A1042520A1042520A1042520A1042520DB
S31520250230A1042520A1042520A1042520A1042520CB
S31520250240A1042520A10425209D052520A1052520BD
S31520250250A1042520A5052520A9052520A10425209D
S31520250260F9592520AD052520B1052520B5052520BB
S31520250270B9052520BD052520C1052520A104252034
S31520250280A1042520A1042520A1042520A10425207B
S31520250290A1042520A1042520A1042520A10425206B
S315202502A0A1042520A1042520A1042520A10425205B
S315202502B0A1042520A1042520A1042520A10425204B
S315202502C0A1042520A1042520A1042520A10425203B
S315202502D0A1042520A1042520A1042520A10425202B
S315202502E0A1042520A1042520A1042520A10425201B
S315202502F0A1042520A1042520A1042520A10425200B
S31520250300A1042520A1042520A1042520A1042520FA
S31520250310A1042520A1042520A1042520A1042520EA
S31520250320A1042520A1042520A1042520A1042520DA
S31520250330A1042520A1042520A1042520A1042520CA
S31520250340A1042520A1042520A1042520A1042520BA
S31520250350A1042520A1042520A1042520A1042520AA
S31520250360A1042520A1042520C5052520C90525204C
S31520250370A1042520A1042520A1042520A10425208A
S31520250380A1042520A1042520CD052520D10525201C
S31520250390D5052520D9052520A1042520A1042520FC
S315202503A0DD052520E1052520A1042520A1042520DC
S315202503B0A1042520A1042520A1042520A10425204A
S315202503C0A1042520A1042520A1042520A10425203A
S315202503D0A1042520A1042520A1042520A10425202A
S315202503E0A1042520A1042520A1042520A10425201A
S315202503F0A1042520A1042520A1042520FFFFFFFFF8
S3152025040010B5054C237833B9044B13B10448AFF303
S3152025041000800123237010BD001027200000000036
S31520250420403C262008B5034B1BB103490348AFF3AF
S31520250430008008BD0000000004102720403C26200F
S3152025044072B60E480E4901600A6882F308880D485F
S3152025045080470D490D4A0E4B9A42BEBF51F8040BD3
S3152025046042F8040BF8E70B490B4A00209142BCBF02
S3152025047041F8040BFAE762B60848804708ED00E004
S3152025048000002520AD232520683C26200000272096
S31520250490F00B272000102720A8CE2720112825203D
S315202504A0FFF7FEBF4F4800474F4800474F480047B4
S315202504B04F4800474F4800474F4800474F48004779
S315202504C04F4800474F4800474F4800474F48004769
S315202504D04F4800474F4800474F4800474F48004759
S315202504E04F4800474F4800474F4800474F48004749
S315202504F04F4800474F4800474F4800474F48004739
S315202505004F4800474F4800474F4800474F48004728
S315202505104F4800474F4800474F4800474F48004718
S315202505204F4800474F4800474F4800474F48004708
S315202505304F4800474F4800474F4800474F480047F8
S315202505404F4800474F4800474F4800474F480047E8
S315202505504F4800474F4800474F4800474F480047D8
S315202505604F4800474F4800474F4800474F480047C8
S315202505704F4800474F4800474F4800474F480047B8
S315202505804F4800474F4800474F4800474F480047A8
S315202505904F4800474F4800474F4800474F48004798
S315202505A04F4800474F4800474F4800474F48004788
S315202505B04F4800474F4800474F4800474F48004778
S315202505C04F4800474F4800474F4800474F48004768
S315202505D04F4800474F4800474F4800474F48004758
S315202505E04F480047A5042520E1282520AD042520B0
S315202505F0B1042520B5042520A1042520A1042520E4
S31520250600A1042520A1042520A1042520A1042520F7
S31520250610A1042520A1042520A1042520A1042520E7
S31520250620A1042520A1042520A1042520A1042520D7
S31520250630A1042520A1042520A10425200122252049
S31520250640212225204122252061222520812225207F
S31520250650A1222520C1222520E1222520012325206E
S315202506602123252041232520A1042520A104252039
S31520250670A1042520A1042520A1042520A104252087
S31520250680A10425207D29262091292620A529262035
S31520250690B9292620CD292620A1042520A1042520D7
S315202506A0A1042520A1042520A1042520A104252057
S315202506B0A1042520A1042520A1042520A104252047
S315202506C0A1042520A1042520A1042520A104252037
S315202506D0A1042520A1042520A1042520A104252027
S315202506E0A1042520A9682520C1682520A104252027
S315202506F0A1042520A1042520A1042520A104252007
S31520250700A1042520A1042520A1042520A1042520F6
S31520250710A1042520A1042520A1042520A1042520E6
S31520250720A104252072B61248124988604FF000028E
S315202507304FF000034FF000044FF000054FF0000660
S315202507404FF00007B846B946BA46BB46BC460A48C6
S3152025075085460A4880470A4880470A48804762B620
S315202507604FF000004FF00001074A9047FEE70000B2
S315202507700000252000ED00E000E02720AD232520E0
S3152025078061D52520CDD5252011282520002A01D142
S3152025079001207047F0B41F46034603242340002B2F
S315202507A009D00424E31A017001300824E141013AD5
S315202507B026D0013BF7D1042A1ADB13D0002F11D0DE
S315202507C00C460D460E46102A02DB72C0103AFAE771
S315202507D00C2A02DB32C00C3AFAE7082A02DB12C0C1
S315202507E0083AFAE7042A03DB01600430043AF9E7DC
S315202507F0002A05D0017001300824E141013AF7D1BC
S31520250800F0BC00207047C04653B94AB9002908BF15
S3152025081000281CBF4FF0FF314FF0FF3000F06EB996
S31520250820ADF1080C6DE904CE00F006F8DDF804E0FC
S31520250830DDE9022304B070472DE9F047089D0446DB
S315202508408C46002B40F083808A42174647D9B2FA38
S3152025085082F242B1C2F1200024FA00F0914097405D
S3152025086040EA010C94404FEA1748230CBCFBF8F6C6
S315202508701FFA87FE08FB16C143EA014306FB0EF144
S31520250880994209D9FB1806F1FF3080F01981994242
S3152025089040F21681023E3B445B1AA4B2B3FBF8F024
S315202508A008FB103344EA034400FB0EFEA64509D96E
S315202508B03C1900F1FF3380F00581A64540F20281DF
S315202508C002383C4440EA0640A4EB0E0400261DB11E
S315202508D0D4400023C5E900433146BDE8F08702B957
S315202508E0FFDEB2FA82F2002A50D1CB1B4FEA174EF1
S315202508F01FFA87F80126B3FBFEFC210C0EFB1C33C1
S3152025090041EA034108FB0CF38B4207D979180CF1F0
S31520250910FF3002D28B4200F2E9808446C91AA3B25F
S31520250920B1FBFEF00EFB101143EA014408FB00F84B
S31520250930A04507D93C1900F1FF3302D2A04500F284
S31520250940D9801846A4EB080440EA0C40BFE78B4221
S3152025095009D9002D00F0B1800026C5E900013046D1
S315202509603146BDE8F087B3FA83F6002E4AD18B426D
S3152025097002D3824200F2B880841A61EB030101205A
S315202509808C46002DA8D0C5E9004CA5E7C2F1200349
S3152025099020FA03F6974001FA02F04FEA174ED9407E
S315202509A03043030CB1FBFEF61FFA87F80EFB161112
S315202509B043EA014306FB08F1994204FA02F409D9D0
S315202509C0FB1806F1FF3C80F08D80994240F28A8003
S315202509D0023E3B445B1A81B2B3FBFEF00EFB10337D
S315202509E041EA034100FB08F38B4207D9791800F128
S315202509F0FF3C73D28B4271D902383944CB1A40EA4F
S31520250A00064678E7C6F1200C03FA06F422FA0CF3FB
S31520250A101C4320FA0CF701FA06F34FEA144E21FA65
S31520250A200CF11F433B0CB1FBFEF91FFA84F80EFB94
S31520250A30191143EA014109FB08FA8A4502FA06F209
S31520250A4000FA06F308D9611809F1FF3048D28A45FC
S31520250A5046D9A9F102092144A1EB0A01BFB2B1FB6E
S31520250A60FEF00EFB101147EA014700FB08F8B845B2
S31520250A7007D9E71900F1FF312ED2B8452CD90238EE
S31520250A80274440EA0940A7EB0807A0FB02894F45E2
S31520250A90C64649461AD317D05DB1B3EB0E0267EB8E
S31520250AA0010707FA0CFCF2404CEA0202F740C5E999
S31520250AB0002700263146BDE8F0872E4628460BE737
S31520250AC00646E9E61846FDE64345E5D2B8EB020E8D
S31520250AD069EB04010138DFE70846D2E760468DE752
S31520250AE08146B9E7664675E730464AE7ACF1020CFA
S31520250AF0394413E702383C4424E700BF704700BF3A
S31520250B00002307B5182101AA0B48ADF804308DF826
S31520250B10063001F0F1F9094B05221A60084AD2F868
S31520250B20AC3023F48073C2F8AC300C22054B1A6006
S31520250B3003B05DF804FB00BF0040134070810E40D2
S31520250B4000400E40B4830E400023074A136004322A
S31520250B50C2F8B0341360C2F8AC340E2302F51072F5
S31520250B6013605360704700BF6C810E400023074AEF
S31520250B7013600432C2F8B0341360C2F8AC340223B1
S31520250B8002F5107213605360704700BF6C810E40CA
S31520250B9010464AB1002382F82130536833B11B68A9
S31520250BA023B10A46012118470320704701207047A3
S31520250BB010464AB1002382F82230536833B11B6888
S31520250BC023B10A4602211847032070470120704782
S31520250BD02DE9F043037F87B004461BB9012007B0D2
S31520250BE0BDE8F0834268926851799942F6D3126816
S31520250BF0002AF3D003F100530C27013B02EBC30651
S31520250C0012F8335000239D42E8D907FB03F270687A
S31520250C108118825C032A49D10D7A00239D423BD82F
S31520250C200026CB786377002ED8D000250120DFF843
S31520250C3080802F46DFF87C90A6603379AB42CED9CB
S31520250C400623B1688DF808706B430135CA181079CB
S31520250C508DF80900CB5C20688DF80630DB09518894
S31520250C606FF00103ADF8041001A9527818BFE3608F
S31520250C708DF8072003AA19BF84F82370276163619D
S31520250C8084F824700ABFA761CDF80C90CDF80C8086
S31520250C9004940BF07BFDD0E71A01486800EB031678
S31520250CA0805CA27F9042BCD00133B7E70133AAE707
S31520250CB0B10B2520910B2520836870B5044693B169
S31520250CC0002501200626A3681A79954202D30023FA
S31520250CD0A36070BD9A6806FB05F320680135D15CB3
S31520250CE00BF073FDEFE70120F3E72DE9F04F0446DE
S31520250CF085B01646002A00F02581002800F022819D
S31520250D00C9B2013905290ED8DFE811F0C000060041
S31520250D100F002200320059000023037780F8213066
S31520250D2080F822308360012531E04368002BFAD0F4
S31520250D30037F12789A42F6D00BB1FFF7BDFF3378A1
S31520250D4023770023A3772046FFF742FF05461EE09B
S31520250D504368002BE7D01588437FB3EB152FE2D1C7
S31520250D60EDB2837FAB42DED0FFF7A6FFA577EAE774
S31520250D704368002BD7D08368002BD4D001250027A4
S31520250D804FF00608A946A3681A79BA4203D82846F9
S31520250D9005B0BDE8F08F9A6808FB07F3D25C337857
S31520250DA093420AD1DB09206814BF84F8233084F8BE
S31520250DB0249031780BF028FD05460137E3E7436873
S31520250DC0002BB0D08368002BADD04FF0000801252D
S31520250DD04FF0060B6FF0010A4746A3681A7942455C
S31520250DE0D5D90BFB08F99B68327813F8091091425F
S31520250DF027D120680BF017FD33780546DB09A36834
S31520250E0022D094F82320E2B1E26884F82370901C3E
S31520250E1017D09B68206813F80910236901F00F0164
S31520250E200BF0AAFC054650B1E368224601A92068A5
S31520250E30019323698DF80C700293FFF7A9FEC4E967
S31520250E4003A708F10108C8E794F82420002AF8D03A
S31520250E50626984F82470911CF3D09B68206813F866
S31520250E600910A36901F00F010BF08CFC054650B142
S31520250E706369224601A920680193A3698DF80C7020
S31520250E800293FFF795FEC4E905A7DAE713681878D4
S31520250E9000F01F05012D7FF446AF617F1A79914217
S31520250EA07FF475AF5A78013A0A2A4DD8DFE802F041
S31520250EB00616214C4C4C4C4C243942005B8801AA01
S31520250EC003215BBAADF80C3063681B68204698472A
S31520250ED0019B05467360029BB36058E704F11F0703
S31520250EE063683A46042120461B689847776005465D
S31520250EF04DE704F12007F3E75B88317B5BBAB268BF
S31520250F00ADF80C3063681B6819B10292092101AA34
S31520250F10DCE77168CDE9011201AA0621204698470A
S31520250F2014E75B88224607211B0A02F81F3F6368C0
S31520250F301B68F3E75B882246082102F8203F636871
S31520250F401B68EBE7032522E7052520E770B50A4C24
S31520250F500E46154623685BB9214600F0C5FB30B9F8
S31520250F6023683BB1FF2366602077A3772C6070BD6D
S31520250F700220FCE70320FAE71C10272010B504469B
S31520250F8038B1FFF799FE0023C4E900332377A377E9
S31520250F9010BD0320FCE7F8B5044698B190F821004A
S31520250FA090B9012784F8217094F8237017B1C4E9E4
S31520250FB00323F8BD20680BF0DFFB0028F9D084F841
S31520250FC02170F6E70320F4E70220F2E7F8B5044678
S31520250FD098B190F8220090B9012784F8227094F8C8
S31520250FE0247017B1C4E90523F8BD20680BF0CAFB88
S31520250FF00028F9D084F82270F6E70320F4E70220AA
S31520251000F2E72DE9F347002405468A4617460621A9
S315202510100DF1030200681E468DF803400BF012FCE5
S315202510209DF80330012B36D89AF8009005F10C0847
S3152025103019F01F090FD14246042128680BF002FC1E
S31520251040AB8903F00303AB8102233360C7F8008005
S3152025105002B0BDE8F087B9F1010F04D10223AC8196
S3152025106020463360F2E7B9F1020F12D1BAF80430DF
S3152025107001AA052128688DF80430ADF806400BF025
S31520251080E1FBBDF8063003F00303AB81C6F80090DB
S31520251090DCE70520DAE70520DAE72DE9F04385B0F8
S315202510A01C460023B1F8028006460F461546062122
S315202510B00DF1030200688DF803300BF0C3FB9DF874
S315202510C003304FEA1829022B42D8FB88B9F1010FA4
S315202510D002930BD101AA0B21306800F054FB019B0A
S315202510E02B60029B236005B0BDE8F083B9F1020F82
S315202510F05FFA89F25FFA88F304D101AA0C218DF8CB
S315202511000C30E9E7032A07D18DF80E3001AABB88D2
S315202511100D21ADF80C30DFE7212A05D1BB8801AAA0
S315202511200E218DF80C30D7E7222A05D1BB8801AAB6
S315202511300F218DF80C30CFE7232A07D18DF80C30D7
S3152025114001AABB8810218DF80D30C5E70520C6E7F5
S315202511500520C8E773B5002604460D460DF107027E
S31520251160062100688DF807600BF06CFB9DF807308B
S31520251170032B0CD0022B18D86B880DF107020721DB
S315202511808DF8073020680BF07EFB02B070BD324605
S31520251190072120680BF077FB0028F6D101230DF1D6
S315202511A0070206218DF80730ECE70520EDE7002319
S315202511B037B505460C460DF10602062100688DF841
S315202511C006308DF807300BF03DFB9DF80630012BB8
S315202511D002D9052003B030BD6378032B04BF012334
S315202511E08DF80730237813F01F0309D16388012B47
S315202511F0EFD10DF107021421286800F0C4FAE9E79A
S31520251200022BE6D16388002BE3D1A1880B0706D1D3
S315202512109DF80730C9B2286853B10BF0F5FA9DF829
S315202512200730221D286833B1052100F07DFAD1E744
S315202512300BF0F9FAF3E70621F7E7F7B51E46002363
S3152025124004460D46174606210DF1070200688DF83E
S3152025125007300BF0F7FA9DF807306BB9AB88254692
S315202512600821206825F80C3F2A460BF0EBFA0223A5
S315202512703D60336003B0F0BD0520FBE7002337B57D
S3152025128004460D460DF10702062100688DF8073024
S315202512900BF0D8FA9DF8073093B9AA880421AB78A4
S315202512A02546206843EA022325F80C3F2A4600F0E6
S315202512B03BFA2A460A21206800F065FA03B030BD9C
S315202512C00520FBE7F7B51F46002304460D4616469F
S315202512D006210DF1070200688DF807300BF0B2FACA
S315202512E09DF807306BB9012304F10C0216213B60CA
S315202512F0AB8832601B022068A38100F044FA03B034
S31520251300F0BD0520FBE773B51E460023044615468A
S3152025131006210DF1070200688DF807300BF092FAA9
S315202513209DF80730012B0AD8012304F10C0215213B
S3152025133033602A60206800F026FA02B070BD0520A9
S31520251340FBE77FB5002604460D460DF10F02062143
S3152025135000688DF80F600BF075FA9DF80F30012B7C
S315202513601FD80DF10F02062120688DF80F600BF08E
S315202513708AFA6B8843B901230DF10F0206212068CD
S315202513808DF80F300BF07FFAAA1C032120680192D5
S3152025139000F0CAF9019A0921206800F0F4F904B071
S315202513A070BD0520FBE7052A70B505460C46DDE907
S315202513B0040113D1227812F0600F0DD012060BD41A
S315202513C0E288002A08BF0123DB01284603F0800195
S315202513D0BDE870400BF018BA0123F5E70A68E388C3
S315202513E09A420268284688BF0B600B6800210BF0BD
S315202513F0C3F958B994F90030002B07DA034602467B
S3152025140001462846BDE870400BF0BCB970BD0000EA
S315202514104B682DE9F04101338AB04FF00008054687
S315202514200E4617468DF80F80CDE9048803D1052071
S315202514300AB0BDE8F081002AF9D0946806210DF17D
S315202514400F020BF0FFF9317A002977D07368082B24
S31520251450EDD13368002BEAD05A88D88862809A88BD
S31520251460E080A2805A7862701B7813F0600F237073
S3152025147016D10C2A60D8514B53F82260002E5BD00A
S3152025148005AB04AA21463846B04705AB019304ABE4
S3152025149000930023024621462846FFF784FFC7E707
S315202514A003F0200248B31F0627D4BAB1012108909C
S315202514B006AA2846CDF81C808DF82410069400F01F
S315202514C033F9089B0593079B04930028DDD1014614
S315202514D0E388049A28460BF055F9A9E75E062BD50D
S315202514E00023089006AA132107930123284606944C
S315202514F08DF8243000F047F9E3E77AB1002301215E
S31520251500089006AA284607938DF82410069400F0FD
S315202515100BF9089B0593079B0493B6E759060BD52C
S3152025152001230792089006AA132128468DF82430F0
S31520251530069400F028F9ECE70520A6E79DF80F305C
S31520251540032B09D1627821461C4B384653F8225065
S3152025155005AB04AAA8476BE77368002B3FF467AF52
S31520251560E288002A3FF463AF94F900002278002808
S31520251570FFF65DAF12F0200010D0326828468DF890
S3152025158024100121079206AA0694089300F0CCF888
S3152025159005AB019304AB009301237BE752060BD5BC
S315202515A0326813218DF824002846079206AA069428
S315202515B0089300F0E8F8EBE70520E9E7642C2620D8
S315202515C030B5104B87B0054603AACDE903310E4B1E
S315202515D001A901930123ADF808300BF0D7F804466D
S315202515E060B98DF8060003AA01A928460BF0CEF886
S315202515F0044618B1802128460BF0E7F8204607B087
S3152025160030BD00BF111425204000800037B5044683
S3152025161001A80D460BF09CFF0C4A13689C421346E5
S3152025162008D01269019894420DD00BF096FF04201C
S3152025163003B030BD002203EB021301982B600BF07B
S315202516408CFF0020F4E70122F5E700BF4410272070
S3152025165013B5044601A80BF07BFF104B1A6812B16F
S315202516609A7BA2420AD01A6912B19A7FA24212D037
S3152025167001980BF072FF042002B010BD0022002431
S31520251680110103EB021201985C50546094730BF000
S3152025169064FF2046F0E70122F1E700BF441027200A
S315202516A037B5044601A80D460BF052FF0D4B1A6897
S315202516B012B19A7BA2420AD01A6912B19A7FA24206
S315202516C00ED001980BF049FF042003B030BD00222F
S315202516D003EB021301982B600BF03FFF0020F4E764
S315202516E00122F5E74410272037B5044601A80D46E3
S315202516F00BF02EFF0B4B1A6812B1997BA1420AD00B
S315202517001A6912B19B7FA34205D001980BF025FFBC
S31520251710042003B030BD01982A600BF01EFF00205F
S31520251720F7E700BF441027202DE9F3410D4616463D
S3152025173022B90423184602B0BDE8F08101A9FFF796
S3152025174065FF0028F5D1044601274FF00C08019B9B
S315202517505A68E3B2117A994201D83B46EAE71268DC
S3152025176008FB03239A681279012A0AD1586832463A
S315202517702946FFF7BAFA05280346DBD0002808BFF5
S3152025178000270134E3E773B50D4601A9044616461D
S31520251790FFF73CFF88B9012D08D101992046FFF78F
S315202517A00FFF019A02212046FFF7BEFF019B3246F5
S315202517B0294620465B685B68984702B070BD0000C5
S315202517C02DE9F34705460C469046002A5ED000298A
S315202517D05CD04B68002B59D0304F01A80BF0B8FEB2
S315202517E03B6813B1BA7BAA4205D03A69019852B112
S315202517F0BA7FAA424CD1012401980BF0AEFE204691
S3152025180002B0BDE8F087003B18BF0123244A07EB29
S3152025181003164FEA031902EBC303B573B3600BF026
S315202518209CFE746032461F4928460AF02FFF04463F
S3152025183038B157F809000AF010FF2846FFF708FFA8
S31520251840DDE782464FF00C0973685FFA8AF11A7A2A
S315202518508A4217D909FB01F7196839448B681B7900
S31520251860012B03D10A1D2846FFF770FB73681968DB
S3152025187039448B681B7913B90A1D284698470AF1DE
S31520251880010AE1E73368C8F80030B8E70424B6E74B
S31520251890002BBBD002240BF060FEB0E74410272096
S315202518A06410272087172520F7B501A90646FFF7B7
S315202518B0F7FE044618BB0C27019BE5B25A68117A18
S315202518C0A94214D913687D432B449A681279012A93
S315202518D002D15868FFF752FB019B5B681B681D44A4
S315202518E0AB681B790BB9686898470134E4E7186813
S315202518F00AF0B3FE044610B93046FFF7A9FE204666
S3152025190003B0F0BD1FB5019103A9FFF7C9FE28B97C
S31520251910039B0221019A18680AF094FF05B05DF809
S3152025192004FB0000000000000238002138B5C4B2AF
S315202519302DED028B204600F091FA302105462046D2
S3152025194000F08CFA202108EE100A204600F086FAAF
S3152025195007EE900AB8EE488B05F07F03B8EE675B55
S31520251960012006EE103AC5F3426585EE087B00FA7E
S3152025197005F5B8EEC66BBDEC028B37EE066B9FEDF3
S31520251980087B26EE076B07EE905AB8EEE77B86EEA8
S31520251990075BFCEEC57B17EE900A38BDAFF30080BA
S315202519A00000000060E37641084B0220D3F8002290
S315202519B0D3F80032D2B2C3F3C133013300FA03F38D
S315202519C00348B0FBF3F05043704700BF0040C840A2
S315202519D000366E0102284FEAC1010AD0032810D00D
S315202519E000200346C8401EBFB3FBF0F01221484312
S315202519F07047084B3F20D3F8703288401840064B55
S31520251A00F0E7044B3F20D3F8303288401840034B6B
S31520251A10E8E700BF0040C84000A4781F00389C1C7A
S31520251A2010B51E2851D8DFE800F01012141614140C
S31520251A3018181C1C1E2426282A2A502C2F313335CB
S31520251A403537393B3B4040424200214810BD21488D
S31520251A50FCE72148FAE72148F8E7BDE81040FFF7DB
S31520251A60A3BF1F48F2E700210220BDE81040FFF75B
S31520251A70B1BF0121F8E70221F6E70321F4E719484A
S31520251A80E4E700210320F0E70121FBE70221F9E71E
S31520251A900321F7E71448D9E71448D7E71448D5E7AB
S31520251AA00420BDE81040FFF73FBF0520F9E7114C7C
S31520251AB0114A2368C3F30223D05CFFF7B1FF2368BD
S31520251AC0DBB20133B0FBF3F0C0E70020BEE700BF51
S31520251AD00024F400006CDC0200366E010084D71742
S31520251AE000A4781F00389C1C00CA9A3B0065CD1D92
S31520251AF000C2EB0B0000CC40982C262010B50628DA
S31520251B001FD8DFE810F0070036007800C00008014E
S31520251B104C017A01D048B1B1D0F8201821F4803172
S31520251B20C0F82018D0F8201821F0FF010A43C0F864
S31520251B302028C0F83038D0F8003583F48033C0F813
S31520251B400035002014E0D0F8203843F48033C0F83F
S31520251B502038D0F8203823F0FF031A43C0F8202850
S31520251B60D0F8003583F48033C0F80035D0F8400806
S31520251B7010BDB948F9B1D0F85048D0F8501804F41A
S31520251B80007421F48031C0F85018D0F8501821F06F
S31520251B90FF010A43C0F85028C0F86038D0F85038DD
S31520251BA083F48073C0F85038D0F8503803F4007386
S31520251BB09C42F9D0C5E7D0F85018D0F8503801F412
S31520251BC0007143F48033C0F85038D0F8503823F0CC
S31520251BD0FF031A43C0F85028D0F8503883F4807371
S31520251BE0C0F85038D0F8503803F400739942F9D00C
S31520251BF0D0F87008BCE7984829B3D0F88048D0F8A3
S31520251C00801804F4007421F48031C0F88018D0F8A7
S31520251C10801821F0FF010A43C0F88028C0F89038A3
S31520251C20D0F8803883F48073C0F88038D0F880388F
S31520251C3003F400739C42F9D0D0F8803823F48033FE
S31520251C40C0F880387DE7D0F88018D0F8803801F4A0
S31520251C50007143F48033C0F88038D0F8803823F0DB
S31520251C60FF031A43C0F88028D0F8803883F4807380
S31520251C70C0F88038D0F8803803F400739942F9D01B
S31520251C80D0F8A00874E7744829B3D0F8B048D0F81E
S31520251C90B01804F4007421F48031C0F8B018D0F8B7
S31520251CA0B01821F0FF010A43C0F8B028C0F8C03883
S31520251CB0D0F8B03883F48073C0F8B038D0F8B0386F
S31520251CC003F400739C42F9D0D0F8B03823F480333E
S31520251CD0C0F8B03835E7D0F8B018D0F8B03801F4C8
S31520251CE0007143F48033C0F8B038D0F8B03823F0EB
S31520251CF0FF031A43C0F8B028D0F8B03883F4807390
S31520251D00C0F8B038D0F8B03803F400739942F9D02A
S31520251D10D0F8D0082CE7504801B3D0F82049D0F880
S31520251D20201904F4007421F48031C0F82019D0F844
S31520251D30201921F0FF010A43C0F82029C0F830399F
S31520251D40D0F8203983F48073C0F820390346D3F898
S31520251D50202902F400729442F9D0F2E6D0F820190F
S31520251D60D0F8203901F4007143F48033C0F82039A6
S31520251D70D0F8203923F0FF031A43C0F82029D0F8BC
S31520251D80203983F48073C0F820390346D3F82029D7
S31520251D9002F400729142F9D0D3F84009E8E62E489C
S31520251DA0A9B1D0F8E01821F48031C0F8E018D0F890
S31520251DB0E01821F0FF010A43C0F8E028C0F8F038E2
S31520251DC0D0F8003483F40043C0F80034B9E6D0F8BF
S31520251DD0E03843F48033C0F8E038D0F8E03823F0F3
S31520251DE0FF031A43C0F8E028D0F8003483F40043D3
S31520251DF0C0F80034D0F81009BAE61748A9B1D0F8AA
S31520251E00E01821F48031C0F8E018D0F8E01821F048
S31520251E10FF010A43C0F8E028C0F8F038D0F870351D
S31520251E2083F00103C0F870358BE6D0F8E03843F40B
S31520251E308033C0F8E038D0F8E03823F0FF031A4382
S31520251E40C0F8E028D0F8703583F00103C0F8703546
S31520251E50D0F800098CE600BF0040C84000230A467A
S31520251E601946FFF74BBE012303FA01F112B9C0F833
S31520251E7088107047C0F88410704710B50124C369AF
S31520251E800F2902F1FF3204FA01F488BF103923EA1B
S31520251E900403C36194BF00F10C0300F11003042A47
S31520251EA00BD8DFE802F0030B151D2400480003217B
S31520251EB01A68814022EA0101196010BD4C000320D1
S31520251EC01A680121A04022EA0002A1401143F3E726
S31520251ED04C0003201A680221A04022EA0002F4E7DA
S31520251EE049000322186802FA01F10143E4E7C36990
S31520251EF01C43C461E1E7000037B5002315461B4A7C
S31520251F0052F8044BA04214D00133102BF8D10124CA
S31520251F1042698C4022EA0402E34342612A78DAB9EF
S31520251F20426813404360AA7803B0BDE83040FFF7E6
S31520251F30A4BF0D2BEBD80E4AD35C8A2BE7D05A01AA
S31520251F400C4B13441A68D207E1D401221A60BFF339
S31520251F504F8FBFF36F8FDAE76A780191FFF783FFFB
S31520251F60436801991C434460DDE700BF102F2620D6
S31520251F70502F26200060CC400346054A002052F8E3
S31520251F80041B994202D001300D28F8D1704700BF95
S31520251F90602F26202DE9F84F0B684FF00A0E0026D4
S31520251FA004460D460EFB02FA4FEA830998464FF062
S31520251FB0040C37465FFA8CFBBAFBF9F105319944B7
S31520251FC0B1FBFEF189B2012938BF01210CFB01F0B5
S31520251FD00CF1010CB2FBF0F0834234BFC01A181A5B
S31520251FE040459EBF80465E460F46BCF1210FE1D176
S31520251FF06422B3FBF2F303EB43034345C0F09680FB
S315202520002046FFF7B9FF4B4B1A5C4B4B5201134425
S315202520101A68D20705D401221A60BFF34F8FBFF362
S315202520206F8FA368321F013EC7F30C0743F00203C7
S31520252030032A4FEA0666A360A36806F0F85623F01E
S315202520400203A360236998BF43F4003323F01F239B
S3152025205023F0FF031E433E432661236923F00053C5
S315202520602361A269EB7B22F4E26229791B0222F005
S31520252070070203F4E0630A431A43AB7B9B0003F074
S31520252080040313436A79012A4BD1002946D023F428
S315202520900063A361EB7922695B0322F4005203F4E2
S315202520A00053134323616A7A2B7A43EA0243E36278
S315202520B0A36A43F08803A362A36A43F44043A36239
S315202520C06B7B2A7B1B01616A520103F0100302F008
S315202520D0200213430B436362AB7A1BB1636A43F039
S315202520E008036362EB7A1BB1636A43F001036362DB
S315202520F0A979124B124A002918BF1A466369134338
S315202521002A7C6361A3690AB143F400236A7C0AB158
S3152025211043F480230020A361BDE8F88F43F40063B0
S31520252120B7E70029B5D043F01003B2E740F2215096
S31520252130F2E700BF942F26200060CC4000C01FE088
S3152025214000C01FC010B5C36A13F4E06FFBD14369E5
S315202521505902FCD54369002443F0C02343F4F813E0
S3152025216043618461FFF708FF064B1A5C064B520133
S3152025217013441A68D20704D51C60BFF34F8FBFF3CB
S315202521806F8F10BD942F26200060CC40142200216D
S3152025219010B5044610F040FC00234FF4E132C4E983
S315202521A00233C4E90023238210BD0A0221F0FF0150
S315202521B002F4404302F4407210B5046923430361B7
S315202521C0836A23F4403313438362836919438161E8
S315202521D010BD4269836A1B0C03F0C30343EA020040
S315202521E070470A44914204D143695B02FCD50020FD
S315202521F0704743691B02FCD511F8013BC361F1E702
S31520252200044A0548516808B5044B1B689847BFF30F
S315202522104F8F08BD7410272000C00740A8102720FF
S31520252220044A0548916808B5044B1B689847BFF3AF
S315202522304F8F08BD7410272000000840A81027209E
S31520252240044A0548D16808B5044B1B689847BFF34F
S315202522504F8F08BD7410272000400840A81027203E
S31520252260044A0548116908B5044B1B689847BFF3EE
S315202522704F8F08BD7410272000800840A8102720DE
S31520252280044A0548516908B5044B1B689847BFF38E
S315202522904F8F08BD7410272000C00840A81027207E
S315202522A0044A0548916908B5044B1B689847BFF32E
S315202522B04F8F08BD7410272000000940A81027201D
S315202522C0044A0548D16908B5044B1B689847BFF3CE
S315202522D04F8F08BD7410272000400940A8102720BD
S315202522E0044A0548116A08B5044B1B689847BFF36D
S315202522F04F8F08BD7410272000800940A81027205D
S31520252300044A0548516A08B5044B1B689847BFF30C
S315202523104F8F08BD7410272000C00940A8102720FC
S31520252320044A0548916A08B5044B1B689847BFF3AC
S315202523304F8F08BD7410272000000A40A81027209B
S31520252340044A0548D16A08B5044B1B689847BFF34C
S315202523504F8F08BD741027200040C240A810272083
S315202523600F4B1A6811060AD50E4A5A604FF6FF7288
S315202523709A601A6822F0A00242F020021A600A4BBF
S315202523801A6812060AD5074A5A604FF6FF729A60CE
S315202523901A6822F0A00242F020021A60704700BF78
S315202523A00080034020C528D90000C14008B5FFF785
S315202523B0D7FF054AD2F8883043F47003C2F888300F
S315202523C0BDE808400BF002B900ED00E0013910B553
S315202523D0082931D8DFE801F00719052525052530F7
S315202523E00500052010BD5368013B03330BD8134B3D
S315202523F018688369002B06DD90F81A34012B02D143
S31520252400183001F0F3FD0020ECE753685A1E0332FD
S31520252410F9D80A4A1068C3610123143000F8083C0C
S31520252420EFE7064C00212068143001F0C9FD20680D
S315202524300021183001F0C4FD0120D3E7AC10272058
S31520252440012938B50C460FD1084D4FF47E732868DF
S3152025245080F81A1400F1200202218068FEF7B6FDC5
S315202524602B6883F81B4438BD0020FCE7AC102720B9
S3152025247059B9074B022118684FF47E7380F81C241E
S3152025248000F120028068FEF7A1BD0020704700BF1D
S31520252490AC102720014B186000207047AC10272050
S315202524A0024B18600023836018467047AC102720FE
S315202524B005207047087A20B9034B0B604C234B60C7
S315202524C070470520704700BF9000272005207047BC
S315202524D0024B00200B6012234B60704745002720B6
S315202524E0087A20B9034B0B6029234B6070470520BA
S315202524F0704700BF1C002720887A0E4B10B520B9BF
S315202525001A685B680A604B6010BD9B680C891A891E
S3152025251094420CD103280AD81A6800B25B6852F86F
S31520252520202053F8203000200A604B60ECE7052058
S31520252530EAE700BFDC0027200229174B1748184950
S3152025254030B516D10322F82483F82020DC7783F8AA
S31520252550212083F8272083F8264083F828204FF446
S315202525607E73438003814FF400734B800B810020BB
S3152025257030BD40220025012483F82050DA7783F8C0
S31520252580214083F8275083F8262083F82840428047
S3152025259002814A800A81EAE71C002720600027203D
S315202525A0EC0027202DE9F84F2D4F80460BF046F8D5
S315202525B02C4E3B6804460D46DFF8C0905A1C3A60DF
S315202525C0D6E90021B4EB020A274A65EB010BD2E9AD
S315202525D00001594508BF504515D201233B60234BA1
S315202525E0C3E90045224BC9E90045C3F800803B686D
S315202525F0D9F80020013B1F49A21AC6E9004541F812
S315202526002320BDE8F88F062BF1D801A252F823F016
S31520252610DF252520EF252520EF2525202D262520DC
S315202526203F262520EF252520472625200F4BD3E994
S315202526300021A21A65EB0101C3E90021D7E70E4B3C
S31520252640C3E90045D3E70C4B4046D3E90021A21A1E
S3152025265065EB0101C3E9002102F018FFC7E700BF9A
S3152025266014112720D8102720F0102720B81027202E
S31520252670C0102720F8102720E0102720E810272033
S3152025268000210E4B002210B5044619600C48002364
S31520252690C0E900230B48C0E900230B48C0E90023E5
S315202526A00A4B0B4819600AF0D7FF0A4BC3E90001EC
S315202526B020460949BDE8104002F0CCBE141127203A
S315202526C0B8102720E0102720D8102720C010272033
S315202526D080380100F0102720A525252002F0D6BE1A
S315202526E0F8B52A4B0C461B68072B4CD1284B1B6863
S315202526F0834248D1274A28499768D368DFF8A4C05A
S31520252700DB1BD2E900568B60751BBE1B0D604E6008
S31520252710D2E904719269CF1B511A6422CCF8007034
S315202527205343CCF80410B3FBF5F53C3D0D2D28D8A5
S31520252730B3FBF6F3403B052B23D802FB07F3B3FB6C
S31520252740F1F1813909291CD8B3FBF6F3813B092BF5
S3152025275017D801F07DFD114B114AC0EB00101B68DF
S315202527600A21126813444FF49662B0FBF3F34B43C8
S315202527700020B3FBF2F30533B3FBF1F35343236078
S31520252780F8BDFFF77DFF0120FAE700BF14112720AA
S31520252790C0102720F8102720C4102720B81027205E
S315202527A0E0102720D010272007B5022101AA00F006
S315202527B019FE30B9019B986800F0010003B05DF839
S315202527C004FB0020FAE70000421E033204D8034A00
S315202527D0904201D0FFF7E8BF002070472507252026
S315202527E00A4B5B681A690AB9104670479A6802F03F
S315202527F01102112A06D11A68824203D25A68013259
S31520252800824201D21433EDE701207047E4012720C7
S3152025281080B5314C01F0FAFB02F014FB002001F0C3
S315202528202DFC2E4D0AF03CFF23681B689847E3684C
S315202528305B689847E3681F692B683BB94FF47A7024
S315202528400AF00AFF02F058FA244D0EE097F8902058
S315202528501A4205D06A692846EB6891695B689847CC
S315202528601835E9E71A4206D118352B6897F89020AE
S31520252870002BF7D1E8E7EB6828461B689847002800
S31520252880F2D0164E0AE097F890201A4205D0B54286
S3152025289003D0F36830469B68984718363368002B53
S315202528A0F1D12B69E5611BB11B680BB128469847E9
S315202528B0E069436913B11B6803B1984723691B68EF
S315202528C09847E56923695B689847EB68DB68002BA1
S315202528D0F8D028469847F5E7E401272034372620DF
S315202528E0BFF34F8F0549064BCA6802F4E0621343AE
S315202528F0CB60BFF34F8F00BFFDE700BF00ED00E0A3
S315202529000400FA05024B00201B69DB681860704716
S31520252910E4012720034B242200211B69D8680C308B
S3152025292010F07AB8E40127201FB5074B0C22039116
S3152025293001A9CDE90130054BD86943699C68002357
S31520252940A04704B010BD00BFA0000002E401272047
S31520252950F7B52A4E0025F06934468DF80750426989
S31520252960002A49D03369D9680B68012B33D056689C
S315202529702B4601F108020431B04720B1A0F51C539E
S31520252980123B012B10D82669F268956865B15068E7
S3152025299001784B1E142B09D90023136342F210709C
S315202529A0FFF7C2FF42F2107003B0F0BD01F10053CC
S315202529B0B668013B06EBC3071763002FEED056F802
S315202529C03330002BEAD02946984723690122DB6834
S315202529D000201A60E8E70B6B4BB15B683BB10DF124
S315202529E00700984718B13369DB681D60DCE7236942
S315202529F09DF80720DB68EBE71046D5E7E40127207D
S31520252A0008B501780020FFF78FFF0A4BD86943695F
S31520252A101B699847022000F02DFCBFF34F8F0649EE
S31520252A20064BCA6802F4E0621343CB60BFF34F8F8F
S31520252A3000BFFDE7E401272000ED00E00400FA05AC
S31520252A404368B3F5887F10B5044622D00ED8B3F552
S31520252A50807F1BD040F20112934214D0092B0FD030
S31520252A6004202178BDE81040FFF75EBFB3F5907F9F
S31520252A7012D040F221129342F2D104F0D3FEF0E790
S31520252A800BF07CF9EDE70EF0BFFEEAE708F0AEF88D
S31520252A90E7E70FF067FAE4E705F0BCF8E1E7000081
S31520252AA0064B1B6810B504469B69D0E9021240687F
S31520252AB098472178BDE81040FFF736BFE401272047
S31520252AC010B50446FFF726FF074B002062681B69D1
S31520252AD0DB681A61082283F820202178FFF724FF56
S31520252AE0BDE8104001F068B9E4012720064B81682E
S31520252AF0DB6810B50446DB68007998472178BDE860
S31520252B001040FFF711BF00BFE401272010B504466A
S31520252B10D0E9010100F0BCFD2178BDE81040FFF782
S31520252B2003BF000010B50446FFF7F4FE084B00202E
S31520252B30E2681B69DB689A61A2681A6162685A6134
S31520252B40042283F820202178BDE81040FFF7ECBE2B
S31520252B50E401272038B5224D002204462B69DB685F
S31520252B60C3E9042293F82030042B04D12B681B6952
S31520252B70984784B9044674B92B69DB6893F82020D5
S31520252B80152A08D15A6A012A20D11648D3E90A21BD
S31520252B9004F064FA04462B685B6998472B69002C58
S31520252BA008BF0446DB68204693F82010FFF7BCFEB5
S31520252BB042F212739C4211D12B69DB6893F820309F
S31520252BC0082B0BD1BDE8384001F0AAB9052AE2D158
S31520252BD04FF49E61044804F011FBDBE738BD00BFA6
S31520252BE0E4012720C8152720C81727202DE9F74FC8
S31520252BF0DFF800A10746DAF81030D046DA681669DC
S31520252C003EB906703046FFF7A5FF002003B0BDE884
S31520252C10F08F01234FF0000B69460370DAF81C006C
S31520252C20CDF804B0D2E905594269546801AAA047CE
S31520252C30044650B1DAF81C004369DB6898472046DC
S31520252C40FFF788FF87F800B0DFE7DDF804A0BAF1A3
S31520252C50000F06D142F21270FFF77CFF87F800A0FD
S31520252C60D3E7D8F81030B24551460098DA6828BF00
S31520252C70314692F820300191082B14D1D060D161AC
S31520252C8001F026F942F27D73984204D042F27473FC
S31520252C90984218BF0446019BF61A19D12046FFF7FC
S31520252CA059FF3E70B1E7132B07D10A460146284620
S31520252CB00FF0A4FE019B1D44EDE7152BF5D0D8F882
S31520252CC00030024628469C684B46A0470446F1E735
S31520252CD054B1D8F81C004369DB6898472046FFF78E
S31520252CE039FF00233B7090E7D8F81030DB68C3E91D
S31520252CF004658AE7E40127202DE9F74FDFF8F0A0C0
S31520252D000646DAF81030D046DA6814693CB90470DC
S31520252D102046FFF71FFF002003B0BDE8F08F4FF0B8
S31520252D2001035769D2F80C900370DAF81C009369D1
S31520252D3092F820B04269019352699047A042019B9F
S31520252D4028BF20460546B9F1000F13D0024649462D
S31520252D5026480FF053FE0197D8F81C00641B2A46F7
S31520252D60224943699F680123B84794BBFFF7F2FEA2
S31520252D703470D0E73A18BBF1030F019218D1DAF84F
S31520252D80002001463846D2F804B0184AD8470746C7
S31520252D900028E1D0DAF81C004A46144943699C6884
S31520252DA00123A0473846FFF7D5FE86F80090B2E7DF
S31520252DB0DAF81030DB6893F82030152B05D12A4612
S31520252DC039460A480FF01AFEC6E7BBF1130FC3D1C1
S31520252DD0F5E720B1FFF7BEFE002333709BE7D8F831
S31520252DE01030019ADB681C615A6194E7D41127209B
S31520252DF0E4012720044B1B69DB6893F821300BB9A6
S31520252E00FFF7F4BEFFF778BFE4012720074A0346DC
S31520252E101269D26892F821200AB9FFF7E7BE012A5E
S31520252E2001D1FFF769BF002018707047E4012720DC
S31520252E30064B1B6810B50446DB68D0E902124068AC
S31520252E4098472178BDE81040FFF76EBDE40127207D
S31520252E502DE9F0410546174FD0E90186C06838602F
S31520252E60F8B900244046FFF7AFFC0028297808BF8B
S31520252E7004242046FFF758FDCCB90F4D2046C5F82A
S31520252E80008000F0F7F93B681BB183F3088883F3AC
S31520252E9009882B68304698470020BDE8F04100F088
S31520252EA0E9B9FFF79DFC0028DBD10424DAE7BDE844
S31520252EB0F08100BFCC112720D011272038B5044614
S31520252EC04068FFF781FC50B10120656800F0D2F9F2
S31520252ED0A068A8472178BDE83840FFF725BD0420FE
S31520252EE0F8E7000013B5044601F092F80848616812
S31520252EF004F10C02A3680EF01BFD019001F08EF85B
S31520252F002178019802B0BDE81040FFF70DBD00BF1E
S31520252F1000C0CA4010B5A72388B0ADF800300023DD
S31520252F20019002A88DF80230531C01EB8202DBB2F8
S31520252F308DF8033091420AD1074A6946D0695A1C31
S31520252F40436992009C680023A04708B010BD51F81C
S31520252F50044B40F8044BEDE7E401272073B50A4DD1
S31520252F6000246A468168EB6800799E6801ABCDE925
S31520252F700044B0472B69019ADB68920800991C61A9
S31520252F80FFF7C8FF02B070BDE40127201FB5074B08
S31520252F900C22039101A9CDE90130054BD869436956
S31520252FA09C680023A04704B010BD00BFB3010002D2
S31520252FB0E401272030B5204D85B00446FFF7AAFC2D
S31520252FC02B69DA68132382F82030E36882F82130CA
S31520252FD093B9A16820290DD8184865680160184835
S31520252FE0116105601846174951612178FFF79CFC28
S31520252FF005B030BD0420F8E70023114A0F49039375
S3152025300003AB10480093104B1268096803F064FD42
S3152025301018B9039B013B572B01D9002303932B6911
S31520253020094ADB6803995A610122196183F821200F
S31520253030FFF7ACFFDCE700BFE4012720C8112720D6
S31520253040C4112720A41127204C1127201FB5074B53
S315202530500C22039101A9CDE90130054BD869436995
S315202530609C680023A04704B010BD00BFA301000221
S31520253070E401272010B50446FFF74CFC084B002019
S31520253080E2681B69A168DB689A61626819615A61E1
S31520253090032283F82020BDE81040FFF7D7BF00BFC5
S315202530A0E401272010B50E4C88B0CDE90040A0B903
S315202530B09008029202308DF8030003A80FF09EFC9B
S315202530C0084B69469DF80320D86901324369920049
S315202530D09C680023A04708B010BD00230293EFE784
S315202530E0AF000002E40127201FB504460023CDE9C1
S315202530F0023300F08DFFA36802AA616806480EF008
S315202531005DFC019000F08AFFA26802A90198FFF7CD
S31520253110C9FF04B010BD00BF00C0CA401FB5074B6C
S315202531200C22039101A9CDE90130054BD8694369C4
S315202531309C680023A04704B010BD00BFB001000243
S31520253140E401272010B50446FFF7E4FB084B0020B1
S3152025315062681B69A168DB685A611022196183F8A8
S315202531602020E26883F82120BDE81040FFF7D6BF4E
S31520253170E40127201FB5074B0C22039101A9CDE990
S315202531800130054BD86943699C680023A04704B0C4
S3152025319010BD00BFB5010002E401272037B5002266
S315202531A0314D436802210446CDE900222A69D26899
S315202531B082F82110062B55D8DFE803F0040A242AA5
S315202531C02E32400003F01AFF2178FFF7ADFB17E0DA
S315202531D0C368102B44D8FFF79DFB2B692349DB6851
S315202531E0E268596115211A61198461685962A168B5
S315202531F0C3E90A1200202B69DB681969FFF7BAFF94
S3152025320003B030BDD0E90221002003F027FFDBE7FC
S31520253210806803F093FFD7E7806803F0ADFFD3E7F7
S31520253220FFF778FB2B694FF49E62DB681A61104AFB
S315202532305A6115221A8462685A62DBE7FFF76AFB10
S3152025324001A9684603F0C4FF0028D4D12B69019A29
S31520253250DB681A61009A5A6140F215121A84CAE768
S315202532600420C8E70420AFE7E4012720C815272036
S31520253270C8172720012838B5044611D00E4D2B68AE
S315202532809BB96CB900F0C4FE0AF0C6F90AF09EF97E
S315202532900A4B01209C6000F0F1FE01F03DFD62B64F
S315202532A0BFF36F8FBFF34F8F38BDEB689B680BB18C
S315202532B0284698471835E2E73437262000ED00E0E2
S315202532C000230380704770B503880A4441F22106FE
S315202532D08A4201D1038070BD11F8014B83EA04236C
S315202532E008245D001B044CBF85EA06032B46013CBA
S315202532F0F7D1EDE703880B80704744F64E7303809C
S31520253300704770B503880A4448F205068A4201D1DA
S31520253310038070BD11F8014B83EA042308245D0040
S315202533201B044CBF85EA06032B46013CF7D1EDE766
S315202533304FF0FF320023C0E90023704730B5D0E98E
S315202533400034084D14440A444460914201D1036057
S3152025335030BD11F8014B84EA136455F8244084EADC
S315202533600323F2E74C302620D0E9002330B513F08D
S31520253370030308D0054D140E013355F82440042B9C
S3152025338084EA0222F7D102600A6030BD4C3026201D
S3152025339010B5034C206810B180470023236010BD4B
S315202533A0BC1C272010B5034C206810B1804700236C
S315202533B0236010BDB81C272038B5094C65682869B7
S315202533C018B9A46823692BB938BD036803B1984772
S315202533D01435F4E71B6803B198471434F2E700BF88
S315202533E0E401272010B512B10F4B5B68136041B15C
S315202533F03AB113682BB11C6834B95C6834B91C6999
S3152025340024B942F2D8700BE084420AD85C688442FB
S3152025341007D30138014442F2D8708C4228BF0020B8
S3152025342010BD1433E2E700BFE401272070B513B1A0
S31520253430144CA4681C6011B10BB11C6814B942F256
S31520253440D8701CE0256845B9666836B9A66826B9B8
S31520253450E66816B92669002EF1D0954210D10A18AC
S315202534604FF00003D4E9020143F10003A0FB01013B
S31520253470994208BF904242F2D87028BF002070BDDD
S315202534801434D7E7E401272073B5164605461A4690
S315202534900C4611B312F4706FC3F3032305D0012B09
S315202534A010D042F2D87002B070BD01AAFFF79AFF5C
S315202534B00028F8D1019B1B695B68324621462846A0
S315202534C09847F0E701ABFFF7B1FF0028EBD1019B29
S315202534D0034A1B6999691160EEE70846E3E700BFB1
S315202534E0B81C272030B539B1084B00229B681BB163
S315202534F01C680CB11D690DB9042003E0844202D154
S3152025350000200A6030BD01321433F0E7E40127207C
S31520253510114B0139DA68014470B512695C68D2E924
S315202535201C3526689E4205D0A84205D8994203D344
S3152025353001200EE0AB42F7D16469D2E91E32A342BF
S3152025354001D1934206D0904204D88B428CBF0020CD
S31520253550012070BD0020FCE7E4012720F7B516469B
S3152025356005461A460C4600293CD012F4706FC3F343
S31520253570032304D0012B1ED042F2D87019E0FFF781
S31520253580C7FF07460028F7D101AA21462846FFF777
S3152025359029FF70B9019B3246214628461B699B681F
S315202535A09847114B20B9019A126912691A6000E0D1
S315202535B01F6003B0F0BD01ABFFF738FF0028F8D117
S315202535C0019B2846094A1B6999699B6811603246E1
S315202535D021469847044B18B9019A12695269E5E79D
S315202535E00022E3E70846E4E7BC1C2720B81C272051
S315202535F012F4706FC2F3032373B505460C4604D027
S31520253600012B15D042F2D87010E001AAFFF7EAFE69
S31520253610D0B9019B1B695E69D6B121462846FFF79D
S3152025362077FF0028EED121462846B04702B070BD47
S3152025363001ABFFF7FBFE38B9019B1B69DB683BB164
S31520253640214628469847F1E7002C08BF0020EDE7BC
S3152025365042F2E570EAE773B5054616460C4689B16A
S31520253660FFF756FF80B901AA21462846FFF7BAFE5D
S3152025367030B9019B3246214628461B69DB68984787
S3152025368002B070BD0846FBE742F2D870F8E7000085
S315202536900246084612F4706FC2F3032310B405D0F0
S315202536A0012B0DD004205DF8044B70470E4B5B682B
S315202536B019690029F6D0DC6894420FD01433F7E730
S315202536C0094B9B68143353F8041C0029EAD053F878
S315202536D0144C14339442F6D10B6902E08B69002BE6
S315202536E0E0D05DF8044B1847E401272001F0EABE17
S315202536F008B513460A46014618460FF07FF90020DD
S3152025370008BD08B513460A4619460FF077F9002055
S3152025371008BD10B40C460123114622465DF8044BFC
S31520253720FDF734B8074BD3F84824511C1A44C3F85F
S31520253730481482F80002D3F8482402F03F02C3F841
S3152025374048247047C01C272000207047034B0122A0
S3152025375083F85224002283F850247047C01C272042
S315202537604FF4007070470000054B0A46DB6919693E
S3152025377010B44C680146184623465DF8044B184775
S31520253780E40127202DE9F04F87B004468A461546C1
S3152025379009F054FFCDE90201BFF36F8F4FF47A70FC
S315202537A0A2446843254D09F057FF80468946DDE921
S315202537B00223CDE90423544503D1002007B0BDE8D3
S315202537C0F08F09F03BFFCDE90401DDE90401DDE9B0
S315202537D00223DDE904BCCDE900235A466346DDE90B
S315202537E002BC634508BF5A4520D3009BC61A019BB8
S315202537F061EB030758EA090303D04F4508BF464521
S315202538001AD2D5F84C34D5F848249342D3D05A1C0D
S315202538102B4493F80032C5F84C2404F8013BD5F8FF
S315202538204C3403F03F03C5F84C34C4E7DDE90401E5
S31520253830DDE90223861ADBE70520BFE7C01C272002
S3152025384010B50446002201212046FFF79BFF10B91B
S3152025385023785A2BF6D110BD37B5044601A80D4637
S31520253860FFF72EFD042221460DEB0200FFF72BFD47
S315202538706288294601A8FFF726FD01A80DF1060134
S31520253880FFF738FDBDF8060003B030BD5A2307B52E
S3152025389001228DF804300221054B8DF8050001A85B
S315202538A083F85124FFF760FF03B05DF804FB00BFC2
S315202538B0C01C2720084B93F850242AB10022A1208A
S315202538C083F85024FFF7E2BF93F8520418B1A320BA
S315202538D083F85224F6E77047C01C2720FFF7EABF56
S315202538E02DE9F341164698460F46002959D0B2F5BB
S315202538F0007F56D8FFF7DEFF0446002846D12A4DFD
S3152025390095F851340BB185F851045A2385F8403260
S31520253910B8F1000F3ED1A42385F84132A5F842629D
S3152025392026B13246394621480FF068F81F49881FA7
S31520253930FFF792FFB11DA5F844021D48FFF714FF96
S31520253940044618BB1A4E01A8FFF77AFF0446E8B9A4
S315202539500A2201210DF10500FFF714FF0446A8B917
S315202539609DF8053003F15F02D2B2022A19D8A32B7E
S3152025397012D0A22B0AD1B5F8421230460631FFF7CE
S31520253980F3FE60B99DF80530A22BDCD0204602B087
S31520253990BDE8F081A523BFE742F21274F6E7044677
S315202539A0F4E70424F2E700BFC01C2720061F2720A2
S315202539B0001F27200F4B93F8502413B504462AB110
S315202539C093F8512412B193F852347BB94AF25A739B
S315202539D0022201A92046ADF8043023695B68984761
S315202539E02369082204495B682046984742F21370CA
S315202539F002B010BDC01C2720A43426202DE9FF4760
S31520253A00154698460F4600297AD0002A78D00023D5
S31520253A103C4E136086F85134FFF74CFF044638BBDD
S31520253A20B8F1000FDFF8E0A0B04614BF4FF0A50986
S31520253A304FF0A4094FF40072002140460EF0ECFF0A
S31520253A4002A8FFF7FDFE80B90A2201210DF1090002
S31520253A50FFF798FE044640B99DF80930A62B0BD1D1
S31520253A60DAF81C00FFF7A6FFB0B3002304462B6027
S31520253A70204604B0BDE8F0874B452BD114220221E0
S31520253A8001A8FFF77FFEBDF804300028EDD1B3F558
S31520253A90007F4FF014024FF0020101A828BF4FF4F2
S31520253AA00073ADF80A30FFF76DFEBDF80430ADF88A
S31520253AB00C300028D9D1BDF80A206AB101464046E6
S31520253AC00EF0AAFFBDF80A100A2240464A43FFF700
S31520253AD059FEC9E70120C8E7414602A8FFF7BCFEE3
S31520253AE0BDF80C30834203D0A220FFF7CFFEA1E7F5
S31520253AF0012386F85034BDF80A303E602B60B7E79F
S31520253B000424B5E7C01C2720E4012720014B0360A8
S31520253B1000207047193B2520436A5A895968828295
S31520253B20DA68023A4260064A914206D11B7A012B6F
S31520253B3003D8044B03600020704742F27570704706
S31520253B4053544D50593C2520F7B500F11C06044603
S31520253B50416A102230461A4FFFF7F0FBB4F85A2057
S31520253B6039681301E06D8D68102103F4706343EAEB
S31520253B701223626AA847054648B9E36D1033E365E3
S31520253B80236E103B102B236604D90E4B2360284623
S31520253B9003B0F0BD0BB10C4BF8E73B681B69984782
S31520253BA005460028F3D101A93046FFF7DDFB626ED5
S31520253BB0019B9A4201D1054BE8E742F27A75E6E761
S31520253BC0E4012720493B2520D13B25200F3E2520D2
S31520253BD07FB5B0F85A200446144E1301316803F4F4
S31520253BE070638D6843EA1223426AD0E91701A847F4
S31520253BF00546B8B933681B699847054690B904F137
S31520253C001C001022616A0190FFF798FB03A90198F1
S31520253C10FFF7AAFB039B626E9A420ABF044B42F228
S31520253C207A752360284604B070BD00BFE40127209D
S31520253C300F3E2520D0E90132934208D99B1A826668
S31520253C404360044B0360012383600020704742F2C2
S31520253C50787070470F3E2520416A43684A688261FD
S31520253C600A68033A9A42826003D20B8923B9FFF761
S31520253C70E1BF42F27670704742F2777070470000B6
S31520253C8010B504461C30FFF753FB044A216E00204D
S31520253C90034B102998BF1346236010BDD13B252001
S31520253CA0493B2520034B1B68D0E91812DB68C06DDC
S31520253CB0184700BFE4012720B0F85A301A0113F01F
S31520253CC0010F02F4706242EA132214BF082304234B
S31520253CD0042A05D100F16002C16D02480DF028BEE7
S31520253CE00420704700C0CA40036E42688360934211
S31520253CF010D8426ED20707D5C16D8269914203D16C
S31520253D0013B1C36000207047B0F85A30DB0704D4BE
S31520253D10FFF790BF42F27670704742F27C7070476B
S31520253D20B0F85A309A071BD41A0102F4706242EA77
S31520253D301322DB070ED5B2F5807F09D040F2011379
S31520253D409A4203D0092A0BD10AF018B80DF05CBD8A
S31520253D5006F04CBF034B1B68D0E917019B69184712
S31520253D6004207047E401272013B50446B0F85A00ED
S31520253D70030103F4706343EA1020092804D1E06D7A
S31520253D8009F0EAFF02B010BD030A012B0FD101A9C4
S31520253D90FFF7A8FB0028F5D1064B1421E06D9A687C
S31520253DA0019B01FB03231B691B699847EAE704202E
S31520253DB0E8E700BFE401272010B5054C7022002135
S31520253DC020460EF029FE034B0020236010BD00BFA0
S31520253DD0282127200D3B252038B5C56D04462846A4
S31520253DE0FEF7F2FC80B104F11801606EA847012880
S31520253DF004D12046BDE83840FFF71CBF022802D152
S31520253E00FFF7DAFF002038BD42F27F70FBE7436AD1
S31520253E1030B4044600F158050FCB85E80F0004F190
S31520253E2067025A2315F8011F95420B44FAD194F8B7
S31520253E305820DBB29A422ED194F859300A2B27D80E
S31520253E40DFE803F02C0A0E1206162C1A061E22006F
S31520253E5042F2127030BC7047204630BCFFF744BF73
S31520253E60204630BCFFF70CBF204630BCFFF71ABFD3
S31520253E70204630BCFFF7B0BF204630BCFFF750BFE9
S31520253E80204630BCFFF770BF204630BCFFF714BF55
S31520253E9042F27B70DEE742F27970DBE70020D9E734
S31520253EA009480A4BC268436232B103699A4208D04F
S31520253EB00133036103681847836E002BFAD0013B33
S31520253EC083660020704700BF28212720142127201C
S31520253ED02DE9F041002407460E46104DA046B44252
S31520253EE001D1002009E02B69C3F110032344A34205
S31520253EF00CD0A64203D142F27D70BDE8F0812A6915
S31520253F00511C2961395D0134A954F0E7C5F8108083
S31520253F10FFF7C6FF0028E2D0EFE700BF14212720B0
S31520253F202DE9F041DFF89480D8F800301B699847B1
S31520253F30044618BB1E4D95F85960042E21D1EF6DE8
S31520253F403846FEF741FCB8B12046FFF793F9B5F878
S31520253F505A309B070ED52B6E63B1D8F804201168ED
S31520253F608B4220D35268013293421CD883F308888A
S31520253F7083F30988686EB84742F27E742046BDE8E9
S31520253F80F081082E11D10220FFF774F9BFF34F8F48
S31520253F900849094BCA6802F4E0621343CB60BFF394
S31520253FA04F8F00BFFDE73446E8E742F27B74E5E70D
S31520253FB02821272000ED00E00400FA05E40127202A
S31520253FC00160704738B5084D0446284609F0C0FAE1
S31520253FD0236801332360286809F0BFFA2368002B5C
S31520253FE0FCD1012038BD00BF9821272038B5064DA4
S31520253FF00446284609F0ACFA2368013B2360286845
S31520254000BDE8384009F0A9BA982127207047000035
S31520254010014809F09DBA00BF98212720014B186831
S3152025402009F09BBA982127200129064B4FF48012A7
S3152025403001D11A607047C3F88020BFF34F8FBFF395
S315202540406F8F704700E100E0044B05481B6813F08D
S31520254050040F044B18BF1846704700BFA0C9CA4095
S3152025406000366E0100F82401034B1B6813F0080F58
S3152025407014BF3C20AA207047A0C9CA4070B5F8B9FC
S31520254080204C214B2646236003F17D5303F5E4136B
S3152025409003F59D531D6800F075FE1C49C5F30115D2
S315202540A0A8B1FFF7E1FF0223AA2803FA05F208D1D2
S315202540B04FF40173C1F8803C154BB3FBF2F3336003
S315202540C070BD40F20243C1F8803C124BF5E7012230
S315202540D0AA40FFF7C9FFAA2808D14FF40173C1F8D2
S315202540E0803C0B4BB3FBF2F22260E9E740F2024318
S315202540F0C1F8803C084B1B685B074CBF074B084B18
S31520254100F0E700BF0000272000366E010000CC40D6
S315202541100084D71700389C1C70C8CA400065CD1D61
S31520254120001E7C29274AD2F8403143F0020310B5D8
S31520254130254CC2F840314FF00043A363236B23F06F
S3152025414080432363236B43F440432363236B43F448
S31520254150C0132363D4F8A03043F40013C4F8A03049
S31520254160D4F8A01021F0E071FFF76EFF174B984287
S315202541704FF064000CBF41F4400141F0A071C4F812
S31520254180A010D4F8A03043F44053C4F8A03009F049
S315202541906FFAD4F8A0300B4A012043F04003C4F827
S315202541A0A0304FF48033C4F8A830236B23F0804306
S315202541B0236300232360D2F8403123F00103C2F87C
S315202541C0403110BD000043400040434000366E017B
S315202541D0072893BF064B082305221A5C9CBF054B4F
S315202541E01B5C013B43EA0223034AC2F8003270478F
S315202541F0C4342620CC3426200000CC40024A46F260
S3152025420020430121D15070470000CC40024A46F276
S3152025421020430021D15070470000CC40084BD3F8CD
S315202542200031DAB2C3F30223023B0132052B96BFB6
S315202542300449054851F82300B0FBF2F0704700BF2A
S315202542400000CC40AC34262000366E01FFF7E6BFB1
S31520254250FFF7E4BF0048704700B4C4047047000048
S3152025426010B51446002A41D003293FD8431E012BD9
S315202542703CD8012909D002290AD0002936D11D206A
S31520254280FDF7CEFB2060002010BDFFF7C7FFF9E71D
S31520254290174B184A01280CBF184610460368006894
S315202542A0C3F30223C0B2013B421C062B1CD8DFE8F0
S315202542B003F008191715131104000F48B0FBF2F067
S315202542C0E0E70E4B0E481B6813F0040F0D4B08BF75
S315202542D01846F3E70C48F1E70C48EFE70C48EDE7DD
S315202542E00C48EBE70C48E9E70648E7E70420CBE747
S315202542F0000ACC40800ACC4000389C1CA0C9CA4064
S3152025430000B0710B00366E01007B9A1700A4781F2A
S31520254310E04B9D270024F4000084D717431E012B4C
S315202543202DE9F74F04460D4600F24E810228D1F895
S3152025433040A0D1F8608018BF00241AF4807F18BFCA
S315202543400134B8F1000F05D1B04A782303FB0423A5
S31520254350D3F86880D5F86CE0BEF1000F40F03781A0
S31520254360AA4A782303FB0423D3F874906E6E26B9C4
S31520254370A64A782303FB0423DE6EAF6E27B9A34A0C
S31520254380782303FB04231F6FD5E91432002B40F035
S315202543902081002A00F082809C4B782202FB043261
S315202543A01379002B40F02781984B782101FB043186
S315202543B00A7A52B19200497A02F1804241F01001DF
S315202543C002F568221161C2F85462782200206243E0
S315202543D0134401929C469CF814109CF815B089002C
S315202543E001F1804101F56821C1F810B0C1F8547258
S315202543F09CF8161031B19CF817B001F59371844AB3
S3152025440042F821B001300CF1040C0428E3D195F8AB
S315202544104510082900F000812B7B03F0FD03012B95
S315202544201FD11AF4007F00F01E81BEF1000F794AB4
S3152025443014BFF1464FF00809137893B19B005178A4
S3152025444003F1804341F0100103F568231961C3F870
S31520254450549293782BB1D17803F593736C4A42F80D
S315202544602310284609F0D3FCC0B1684B782202FBDD
S315202544700432137B93B19B00517B03F1804341F09A
S31520254480100103F568231961C3F85462937B2BB178
S31520254490D17B03F593735E4A42F82310D5E916316D
S315202544A0002B40F0E480002900F08E80574B78229F
S315202544B002FB043292F83830002B40F0ED80534829
S315202544C0782303FB0403804693F834201AB993F8FE
S315202544D03830002B78D0782202FB048292F83C30A3
S315202544E05BB19B0092F83D2003F1804342F01002F8
S315202544F003F568231A61C3F8546278230021DFF86F
S3152025450010C103FB0483184690F8482090F849E00B
S31520254510920002F1804202F56822C2F810E0C2F824
S31520254520547290F84A202AB190F84BE002F59372FE
S315202545304CF822E0013104300429E5D195F84520AF
S31520254540082A00F0B4802B7B03F0FD03012B1BD119
S31520254550782202FB048292F84430ABB19B0092F874
S31520254560451003F1804341F0100103F568231961B5
S31520254570C3F8549292F8463033B192F8471003F592
S315202545809373234A42F82310284609F040FCD8B1D4
S31520254590782000FB048494F84030ABB19B0094F836
S315202545A0412003F1804342F0100203F568231A6166
S315202545B0C3F8546294F8423033B194F8431003F586
S315202545C09373134A42F8231003B0BDE8F08FF146C2
S315202545D0CCE678230D486343C118C35C9B004978F4
S315202545E003F1804303F568231961C3F85482002A11
S315202545F03FF4DAAED0E69B00527903F1804303F5EA
S3152025460068231A61C3F85482CEE600BF10352620CA
S3152025461000800E400C352620DFF8E0C0782101FBEE
S3152025462004C191F8241000293FF4F6AEDFF8D0C056
S3152025463093F8241093F825B0890001F1804101F5DE
S315202546406821C1F810B0C1F8547293F8261029B103
S3152025465093F827B001F593714CF821B00130043336
S315202546600828E5D1D8E6244B019A1A44E4E6234BBB
S31520254670782202FB043292F834304BB19B0092F813
S31520254680352003F1804303F568231A61C3F8548244
S3152025469000293FF414AF09E79B0092F8392003F14E
S315202546A0804303F568231A61C3F8548207E77822E5
S315202546B002FB048292F85820002A3FF444AF104882
S315202546C093F8582093F859C0920002F1804202F5BA
S315202546D06822C2F810C0C2F8547293F85A202AB11B
S315202546E093F85BC002F5937240F822C0013104335A
S315202546F00829E5D127E700BF203526201035262095
S3152025470000800E4038B504461D200D46FDF788F954
S31520254710094BB0FBF3F0013014F1FF3445F1FF3599
S315202547206B1C08BFB4F1FF3F04D138BD00BF013B48
S31520254730FCD2F1E70346FAE700093D00014BD86193
S31520254740002070470040C040024BDB6903600020F3
S31520254750704700BF0040C04019B1034B00200B60B5
S3152025476070470420704700BF80F5E4090020704774
S31520254770012809D0022806D1044B01221A60BFF34D
S315202547804F8FBFF36F8F7047014BF6E7A063CC4061
S315202547908063CC40012809D0022806D1044B00226B
S315202547A01A60BFF34F8FBFF36F8F7047014BF6E724
S315202547B0A063CC408063CC40012A2DE9F0470546ED
S315202547C098B00F4666D8002964D0431E012B61D8A0
S315202547D03E4B0DF1100C3E4E3E4CE046012818BFAF
S315202547E01E4604F128093368C3F3022320680834BA
S315202547F054F8041CE6464C45AEE80300F446F5D1AC
S31520254800354C0DF1380C04F1280AE1462068083488
S3152025481054F8041CE6465445AEE80300F446F5D183
S31520254820032B3AD8DFE803F04D024F4D1C46013CB9
S315202548301B022A4A03F4E063E4B207CA1C4301ABF0
S3152025484083E80700264BA900264A012D08BF1346D3
S315202548501B6853B118AB28460B4453F85C2C1368B8
S3152025486043F002031360FFF795FF3368A34200D078
S3152025487034602846FFF77CFF18AB194451F85C2C89
S315202548800221136823F00203136000236A4600934E
S31520254890FFF7E6FC18B0BDE8F08700211423012A8E
S315202548A003FB01F302D008EB030201E009EB030227
S315202548B00A2F28BF012702EB47035C7812F8173009
S315202548C0B5E70124B3E70121E8E700BF800ACC40FC
S315202548D0000ACC40342A26205C2A2620282A26206F
S315202548E0A063CC408063CC4041B1C90001F038019A
S315202548F041F00103C1660366C0E9193370470000FC
S3152025490010B5094C0122A368C3F30023013302FA0B
S3152025491003F303600020A36803F00303063302FA9A
S3152025492003F30B6010BD00BF0040C04070B588B0B2
S3152025493010220021044668460EF06EF8102200212A
S315202549400DEB02000EF068F800F0D8F9022805468E
S3152025495040F096804FF4E072002120460EF05CF858
S31520254960484B4948012284F84450484DC4E9000360
S31520254970474B9B6884F845206422C3F3401322675E
S31520254980C3F1020384F846304FF080532365032371
S315202549906373A3732A68120E01D02B681B0E43F06E
S315202549A0416343F4806300933A4B01932B6813F4B8
S315202549B07F0F50D02B68C3F30743374A0126694614
S315202549C004F180001A43324B04929B68C3F30013EB
S315202549D003F10C020B33E27306FA03F306FA02F20D
S315202549E0C4F8C031C4F8C42110220EF007F81022CD
S315202549F004F598700DEB02010EF000F82B681904CA
S31520254A002BD41022254904F190000DF0F7FF2B68B1
S31520254A1013F480432BD11022214904F5A87084F85C
S31520254A20CD310DF0EBFF2B681B0604D52B68C3F380
S31520254A30C013A4F87C30164B9B68C3F34123022B65
S31520254A4019D0032B1AD0012B14BF6423C823002089
S31520254A50636708B070BD1323AFE784F8CC612B6854
S31520254A601A0454BF4B230A23A4F8D231CFE70123B6
S31520254A7084F8CD31D7E74FF4C873E8E73223E6E744
S31520254A800420E6E7000401564643464280CCCA4028
S31520254A900040C0400830042400041808003726208A
S31520254AA0F03626203E4B0C22002110B51961C3F87D
S31520254AB054225961C3F858229961C3F85C22D961D9
S31520254AC0C3F860221962C3F864225962C3F86822A2
S31520254AD09962C3F86C22D962C3F87022027A2AB168
S31520254AE0012A25D190F82120102A21D100210C2216
S31520254AF0C3F88810C3F8CC22C3F88C10C3F8D0226B
S31520254B00C3F89010C3F8D422C3F89410C3F8D8223A
S31520254B10C3F89810C3F8DC22C3F89C10C3F8E0220A
S31520254B20C3F8A010C3F8E422C3F8A410C3F8E822DA
S31520254B301B4B00210C220424D965C3F8A022196613
S31520254B40C3F8A4229966C3F8AC22C3F8B010C3F8DB
S31520254B50F4429965C3F89C2290F830000138032841
S31520254B6019D8DFE800F0120C06025965C3F89822F9
S31520254B7010BD0221C3F87C11C3F8C023F8E7022112
S31520254B80C3F87811C3F8BC23F2E70221C3F87411C0
S31520254B90C3F8B823ECE7C3F8B410C3F8F822E7E73F
S31520254BA000800E40013803280CD8074B53F82010D7
S31520254BB0064B185C0123834012B1C1F88830704713
S31520254BC0C1F88430704700BF143726201037262099
S31520254BD0431E032B05D82A30024B40F20922C00159
S31520254BE01A5070470000CC400378013B032B45D84B
S31520254BF0DFE803F00223455F3E4B00210B220120EF
S31520254C00C3F87C11C3F8C023C3F88811C3F8CC2375
S31520254C10C3F8D405C3F884110521C3F8C823C3F8DE
S31520254C208011C3F8C42303F598235A6842F080528D
S31520254C305A601A6842F080521FE02E4B0C2206211C
S31520254C400120C3F8D011C3F81424C3F8DC11C3F806
S31520254C502024C3F8E805C3F8D8110521C3F81C2458
S31520254C60C3F8D411C3F8182403F5A0235A6842F4AF
S31520254C7000325A601A6842F400321A6070471D4B7A
S31520254C8009210C220120C3F8F411C3F83824C3F8CE
S31520254C90F811C3F83C24C3F80406C3F8FC110521F2
S31520254CA0C3F84024C3F80012C3F8442403F5A023EF
S31520254CB0BBE7104B0C2209210120C3F84412C3F867
S31520254CC08824C3F84812C3F88C24C3F81406C3F8DD
S31520254CD04C120521C3F89024C3F85012C3F8942406
S31520254CE003F5A8235A6842F480325A601A6842F49A
S31520254CF08032C2E700800E4000207047034B044ACD
S31520254D009B68C3F30313D05C704700BF0040C040A7
S31520254D102437262070470000064A46F66063D15878
S31520254D20C90705D50021D150BFF34F8FBFF36F8F0C
S31520254D30704700BF0000CC400F4B1B6813F0F00FC7
S31520254D40C3F3031010B515D10C4C0D4923680A68F9
S31520254D50C3F3400302F002021343012B09D0226834
S31520254D600B68C2F3400203F00203134314BF01204C
S31520254D70002010BD0020FCE7D0C8CA40E0C8CA40A4
S31520254D8060C9CA40044B40F624401B68C3F30B1365
S31520254D901B1A58425841704700ED00E010B5C4B0A3
S31520254DA04FF487721E4968460DF028FE1D4B1A685A
S31520254DB0C2F305422C2A0CD9BFF34F8F1A491B4B18
S31520254DC0CA6802F4E0621343CB60BFF34F8F00BF5E
S31520254DD0FDE70624FFF7D6FF154954430DEB0402BC
S31520254DE0938801EB8321134B50B11348134A5861FD
S31520254DF0C3E900029A61124AC3E90A2144B010BDCB
S31520254E0052883DF8044092021860013A5A604FF0C4
S31520254E1000525A616FF0604202EB8422EAE700BF16
S31520254E20842A262070CCCA4000ED00E00400FA052D
S31520254E30FFFF37208C0227200000FE1FFFFF0120C1
S31520254E400000202008B50020FFF718F9FFF7A6FF58
S31520254E50064A46F66063D158C90705D40121D150A3
S31520254E60BFF34F8FBFF36F8F08BD00BF0000CC4027
S31520254E701C4B984207B51AD11B4B052202211A60D5
S31520254E8001231A4A136001AA8DF80430184B1B6892
S31520254E9083F00403C3F380038DF8053000238DF8B2
S31520254EA006301448FDF728F803B05DF804FB124BAD
S31520254EB09842F9D1114B05220F211A600C22C3F8ED
S31520254EC04422012301AA8DF80430094B1B6883F05F
S31520254ED00203C3F340038DF8053000238DF80630F1
S31520254EE0DFE700BF0080414098810E40DC830E40DD
S31520254EF070C9CA400080134000C04140CC810E4075
S31520254F00064B0A46984203D102210548FCF7ABBF3A
S31520254F10044B984201D10F21F7E770470080414085
S31520254F200080134000C04140074B984206D1074BCD
S31520254F3004221A600D22C3F844227047044B984256
S31520254F40FBD1044B0B22F4E70080414094810E408F
S31520254F5000C041407C810E402E4B984221D102290A
S31520254F600DD879B12C4A002313605360936004230E
S31520254F70C2F84432C2F84832C2F84C3202E005392A
S31520254F800129EFD9254B10221A600023244A1360C4
S31520254F9053600423C2F84032C2F84432C2F848325C
S31520254FA07047204B984233D10139052921D8DFE88E
S31520254FB001F01203202012031B4A0023136053609D
S31520254FC09360D3600423C2F84432C2F84832C2F82B
S31520254FD04C32C2F85032154A0023136042F8043C5D
S31520254FE042F8083C0423C2F84432C2F84032C2F8BB
S31520254FF03C320F4B10221A6000230E4A136042F8CA
S31520255000043C0423C2F84832C2F84432C2F840325E
S31520255010704700BF00804140A8810E409C810E40EC
S31520255020A0810E4000C04140D4810E40BC810E4057
S31520255030C8810E40C4810E4001207047254B9842D9
S3152025504021D169B101291DD1234A0023136053603B
S3152025505093600423C2F84432C2F84832C2F84C324F
S315202550601E4B10221A6000231D4A13605360042309
S31520255070C2F84032C2F84432C2F8483211B9194B27
S315202550800C221A607047184B9842FBD179B1012919
S31520255090F8D1164A0023136042F8043C42F8083C0E
S315202550A00423C2F84432C2F84032C2F83C32104BAF
S315202550B010221A6000230F4A136042F8043C042369
S315202550C0C2F84832C2F84432C2F840320029D9D132
S315202550D0094BD5E700804140A8810E409C810E4092
S315202550E0A0810E40F4830E4000C04140BC810E4075
S315202550F0C8810E40C4810E40F8830E40012070479A
S315202551000A780378534003700A7853400B70027847
S31520255110534003707047092810B50C4609D108F06D
S315202551205BFE40B108F002FB00F500602060002000
S3152025513010BD0420FCE742F2DD70F9E702284FF086
S3152025514000000FBF102308601060042004BF0B60E9
S3152025515013607047022A2DE9F0410F4607D10446F0
S3152025516045180026BB1BA5F104089E4201D3BDE8A0
S31520255170F08120464146FFF7C3FFE91E601C043611
S31520255180FFF7BEFFA91EA01CFFF7BAFF691EE01C6C
S3152025519045460434FFF7B4FFE4E7000010B50A4C72
S315202551A00123A26802F0010203FA02F20260A26834
S315202551B012F01E0F06D0A268C2F3430293400020A8
S315202551C00B6010BD4023FAE70040C04010B55C4C6B
S315202551D05C4BA1686FEA112101F0010180F852107C
S315202551E01A68C2F3001280F855201A6812F0080FA3
S315202551F014BF1022082280F82120A2686FEA5222A5
S3152025520002F0010280F820201A68C2F3401280F8A5
S3152025521031201A68C2F3801280F85C201A68C2F3FE
S31520255220C012063202731A68C2F30222023A052AEE
S315202552301BD8DFE802F0031214141618022280F870
S3152025524022201A68C2F3C222013A062A35D8DFE877
S3152025525002F00E282A2C2E3032000422EFE70122D6
S31520255260EDE70322EBE70722E9E70022E7E7092214
S3152025527080F823201A68C2F3803280F85D20304AD0
S3152025528092686FEA922202F0010242721A68C2F3EC
S315202552900242072A40D8DFE802F037123133353F5C
S315202552A0393C0A22E4E70B22E2E70D22E0E70E222B
S315202552B0DEE70F22DCE71022DAE70C22D8E70822E0
S315202552C0C0F8A8201A68C2F3C242022A04D0032AAB
S315202552D002D0012A18BF002280F8302011B31A687F
S315202552E0C2F3006280F856201B68C3F34263052B60
S315202552F023D8DFE803F014181A1C1E201022DFE716
S315202553002022DDE74022DBE78022D9E74FF4007211
S31520255310D6E74FF48062D3E74FF48072D0E7012396
S3152025532080F8533010BD0223FAE70323F8E7042338
S31520255330F6E70523F4E70623F2E70723F0E700BF80
S315202553400040C04080CCCA4038B54FF48072002139
S3152025535004460DF061FB06230025204623732C4B9E
S3152025536084F855502362402384F83150C4F8A83058
S3152025537040F20113A4F85C50A4F8523084F8565014
S315202553806572FFF723FF4FF4007394F82120A36558
S315202553904FF47A73082AA4F85050A4F85E304FF0BB
S315202553A0010384F85450A4F860302AD194F8232098
S315202553B09340C4F8A030D4F8A0304FF480624FF043
S315202553C01E4500205B09134984F8E000C4F8A43063
S315202553D00123A061237284F83000C4E92B23FF23FF
S315202553E04FF480326373E3814FF00073C4E904538D
S315202553F04FF00043E3614023C4E9001284F82430AA
S3152025540038BD102AD7D194F823200132D0E700BF02
S315202554100108000C53454D43012904D0022904D007
S3152025542029B9FBF7A3BBFBF76BBBFBF78DBB7047F6
S3152025543010B5064CA369DB0107D5054B5B6823B15F
S31520255440012098474FF08073A36110BD004013407B
S315202554509C21272010B50A4B04220A4C5960182175
S315202554602046FCF70AFD6369102243F080736361A9
S31520255470054B83F869234FF40072DA6010BD00BF0F
S315202554809C2127200040134000E100E00A4B4FF4E1
S31520255490007210B5C3F88C20BFF34F8FBFF36F8FE3
S315202554A000241821054883F869432246FCF7E5FCA4
S315202554B0034B5C6010BD00BF00E100E000401340B7
S315202554C09C2127200020704770B50C4B0446456843
S315202554D05B5D4BB10A4B2846002153F82560FEF724
S315202554E0A3FD3046FCF72EFE2846FDF7F7F8A368E0
