S0130000666C6173686C6F616465722E737265638C
S3152025000090D82720DD2426207B0825207B0825201F
S315202500108F082620A3082620B308262000000000C6
S315202500200000000000000000000000007B082520BD
S315202500307B082520000000007B0825207B0825201D
S31520250040153726201537262015372620153726201D
S31520250050153726201537262015372620153726200D
S3152025006015372620153726201537262015372620FD
S3152025007015372620153726201537262015372620ED
S3152025008015372620153726201537262015372620DD
S31520250090CB1E262015372620153726201537262030
S315202500A015372620153726201537262015372620BD
S315202500B015372620153726201537262015372620AD
S315202500C0153726201537262015372620153726209D
S315202500D0153726201537262015372620153726208D
S315202500E0153726201537262015372620153726207D
S315202500F0153726201537262015372620153726206D
S31520250100153726201537262015372620153726205C
S31520250110153726201537262015372620153726204C
S31520250120153726201537262015372620153726203C
S31520250130153726201537262015372620153726202C
S31520250140153726201537262015372620153726201C
S31520250150153726201537262015372620153726200C
S31520250160153726201537262015372620052526201E
S315202501700D25262015372620153726201537262006
S3152025018015372620153726201537262015372620DC
S3152025019015372620153726201537262015372620CC
S315202501A015372620153726201537262015372620BC
S315202501B015372620153726201537262015372620AC
S315202501C0153726201537262015372620153726209C
S315202501D0153726201537262015372620153726208C
S315202501E0153726202519252015372620153726208B
S315202501F0153726201537262015372620153726206C
S31520250200153726201537262015372620153726205B
S31520250210153726201537262015372620153726204B
S31520250220153726201537262015372620153726203B
S31520250230153726201537262015372620153726202B
S31520250240153726201537262015372620153726201B
S31520250250153726201537262015372620153726200B
S31520250260833626201537262015372620153726208E
S3152025027015372620153726201537262015372620EB
S3152025028015372620153726201537262015372620DB
S3152025029015372620153726201537262015372620CB
S315202502A015372620153726201537262015372620BB
S315202502B015372620153726201537262015372620AB
S315202502C0153726201537262015372620153726209B
S315202502D0153726201537262015372620153726208B
S315202502E0153726201537262015372620153726207B
S315202502F0153726201537262015372620153726206B
S31520250300153726201537262015372620153726205A
S31520250310153726201537262015372620153726204A
S31520250320153726201537262015372620153726203A
S31520250330153726201537262015372620153726202A
S31520250340153726201537262015372620153726201A
S31520250350153726201537262015372620153726200A
S3152025036015372620153726201537262015372620FA
S3152025037015372620153726201537262015372620EA
S315202503801537262015372620152526201D252620F6
S31520250390252526202D2526201537262015372620C6
S315202503A015372620153726201537262015372620BA
S315202503B015372620153726201537262015372620AA
S315202503C0153726201537262015372620153726209A
S315202503D0153726201537262015372620153726208A
S315202503E0153726201537262015372620153726207A
S315202503F0153726201537262015372620153726206A
S3152025040090D82720DD2426207B0825207B0825201B
S315202504108F082620A3082620B308262000000000C2
S315202504200000000000000000000000007B082520B9
S315202504307B082520000000007B0825207B08252019
S315202504401537262015372620153726201537262019
S315202504501537262015372620153726201537262009
S3152025046015372620153726201537262015372620F9
S3152025047015372620153726201537262015372620E9
S3152025048015372620153726201537262015372620D9
S31520250490CB1E26201537262015372620153726202C
S315202504A015372620153726201537262015372620B9
S315202504B015372620153726201537262015372620A9
S315202504C01537262015372620153726201537262099
S315202504D01537262015372620153726201537262089
S315202504E01537262015372620153726201537262079
S315202504F01537262015372620153726201537262069
S315202505001537262015372620153726201537262058
S315202505101537262015372620153726201537262048
S315202505201537262015372620153726201537262038
S315202505301537262015372620153726201537262028
S315202505401537262015372620153726201537262018
S315202505501537262015372620153726201537262008
S31520250560153726201537262015372620052526201A
S315202505700D25262015372620153726201537262002
S3152025058015372620153726201537262015372620D8
S3152025059015372620153726201537262015372620C8
S315202505A015372620153726201537262015372620B8
S315202505B015372620153726201537262015372620A8
S315202505C01537262015372620153726201537262098
S315202505D01537262015372620153726201537262088
S315202505E01537262025192520153726201537262087
S315202505F01537262015372620153726201537262068
S315202506001537262015372620153726201537262057
S315202506101537262015372620153726201537262047
S315202506201537262015372620153726201537262037
S315202506301537262015372620153726201537262027
S315202506401537262015372620153726201537262017
S315202506501537262015372620153726201537262007
S31520250660833626201537262015372620153726208A
S3152025067015372620153726201537262015372620E7
S3152025068015372620153726201537262015372620D7
S3152025069015372620153726201537262015372620C7
S315202506A015372620153726201537262015372620B7
S315202506B015372620153726201537262015372620A7
S315202506C01537262015372620153726201537262097
S315202506D01537262015372620153726201537262087
S315202506E01537262015372620153726201537262077
S315202506F01537262015372620153726201537262067
S315202507001537262015372620153726201537262056
S315202507101537262015372620153726201537262046
S315202507201537262015372620153726201537262036
S315202507301537262015372620153726201537262026
S315202507401537262015372620153726201537262016
S315202507501537262015372620153726201537262006
S3152025076015372620153726201537262015372620F6
S3152025077015372620153726201537262015372620E6
S315202507801537262015372620152526201D252620F2
S31520250790252526202D2526201537262015372620C2
S315202507A015372620153726201537262015372620B6
S315202507B015372620153726201537262015372620A6
S315202507C01537262015372620153726201537262096
S315202507D01537262015372620153726201537262086
S315202507E01537262015372620153726201537262076
S315202507F01537262015372620153726201537262066
S31520250800002A01D101207047F0B41F460346032450
S315202508102340002B09D00424E31A01700130082433
S31520250820E141521E26D05B1EF7D1042A1ADB13D0AE
S31520250830002F11D00C460D460E46102A02DB72C01B
S31520250840103AFAE70C2A02DB32C00C3AFAE7082AD4
S3152025085002DB12C0083AFAE7042A03DB01600430DA
S31520250860121FF9E7002A05D0017001300824E1413D
S31520250870521EF7D1F0BC00207047FEE70141252006
S31520250880000000004941252000000000BD4225200A
S315202508909D44252017422520A74325208945252007
S315202508A000000000000000000000000087412520F0
S315202508B0000000005F412520A7432520A3452520AC
S315202508C000000000FD45252000000000B74025201A
S315202508D000000000B7412520000000000000000090
S315202508E00000000021462520000000006F46252017
S315202508F0000000009B4625209D442520D341252008
S3152025090000000000000000000000000029422520EC
S31520250910834325200000000000000000B547252040
S315202509208343252000000000B71DC1046E3B8209A4
S31520250930D926430DDC7604136B6BC517B24D861A63
S315202509400550471EB8ED08260FF0C922D6D68A2F80
S3152025095061CB4B2B649B0C35D386CD310AA08E3C9F
S31520250960BDBD4F3870DB114CC7C6D0481EE0934518
S31520250970A9FD5241ACAD155F1BB0D45BC2969756E7
S31520250980758B5652C836196A7F2BD86EA60D9B6352
S3152025099011105A6714401D79A35DDC7D7A7B9F70E3
S315202509A0CD665E74E0B6239857ABE29C8E8DA191D9
S315202509B0399060953CC0278B8BDDE68F52FBA5822F
S315202509C0E5E66486585B2BBEEF46EABA3660A9B7BC
S315202509D0817D68B3842D2FAD3330EEA9EA16ADA4DB
S315202509E05D0B6CA0906D32D42770F3D0FE56B0DD0A
S315202509F0494B71D94C1B36C7FB06F7C32220B4CEEB
S31520250A00953D75CA28803AF29F9DFBF646BBB8FBD5
S31520250A10F1A679FFF4F63EE143EBFFE59ACDBCE856
S31520250A202DD07DEC77708634C06D4730194B043D2B
S31520250A30AE56C539AB0682271C1B4323C53D002E42
S31520250A407220C12ACF9D8E1278804F16A1A60C1B07
S31520250A5016BBCD1F13EB8A01A4F64B057DD00808BE
S31520250A60CACDC90C07AB9778B0B6567C6990157157
S31520250A70DE8DD475DBDD936B6CC0526FB5E61162C6
S31520250A8002FBD066BF469F5E085B5E5AD17D1D5709
S31520250A906660DC5363309B4DD42D5A490D0B194482
S31520250AA0BA16D84097C6A5AC20DB64A8F9FD27A59C
S31520250AB04EE0E6A14BB0A1BFFCAD60BB258B23B68E
S31520250AC09296E2B22F2BAD8A98366C8E41102F83C3
S31520250AD0F60DEE87F35DA9994440689D9D662B907A
S31520250AE02A7BEA94E71DB4E0500075E4892636E989
S31520250AF03E3BF7ED3B6BB0F38C7671F7555032FACA
S31520250B00E24DF3FE5FF0BCC6E8ED7DC231CB3ECF8C
S31520250B1086D6FFCB8386B8D5349B79D1EDBD3ADCF5
S31520250B205AA0FBD8EEE00C6959FDCD6D80DB8E6091
S31520250B3037C64F643296087A858BC97E5CAD8A7313
S31520250B40EBB04B77560D044FE110C54B383686460C
S31520250B508F2B47428A7B005C3D66C158E4408255EF
S31520250B60535D43519E3B1D252926DC21F0009F2CD4
S31520250B70471D5E28424D1936F550D8322C769B3F97
S31520250B809B6B5A3B26D6150391CBD40748ED970A5E
S31520250B90FFF0560EFAA011104DBDD014949B931933
S31520250BA02386521D0E562FF1B94BEEF5606DADF805
S31520250BB0D7706CFCD2202BE2653DEAE6BC1BA9EB5F
S31520250BC00B0668EFB6BB27D701A6E6D3D880A5DEC8
S31520250BD06F9D64DA6ACD23C4DDD0E2C004F6A1CDAB
S31520250BE0B3EB60C97E8D3EBDC990FFB910B6BCB4A6
S31520250BF0A7AB7DB0A2FB3AAE15E6FBAACCC0B8A71B
S31520250C007BDD79A3C660369B717DF79FA85BB49261
S31520250C101F4675961A163288AD0BF38C742DB08126
S31520250C20C330718599908A5D2E8D4B59F7AB085423
S31520250C3040B6C95045E68E4EF2FB4F4A2BDD0C4772
S31520250C409CC0CD43217D827B9660437F4F46007293
S31520250C50F85BC176FD0B86684A16476C933004618E
S31520250C60242DC565E94B9B115E565A158770191893
S31520250C70306DD81C353D9F0282205E065B061D0BF6
S31520250C80EC1BDC0F51A69337E6BB52333F9D113E15
S31520250C908880D03A8DD097243ACD5620E3EB152D52
S31520250CA054F6D4297926A9C5CE3B68C1171D2BCC48
S31520250CB0A000EAC8A550ADD6124D6CD2CB6B2FDF3E
S31520250CC07C76EEDBC1CBA1E376D660E7AFF023EACF
S31520250CD018EDE2EE1DBDA5F0AAA064F4738627F9CA
S31520250CE0C49BE6FD09FDB889BEE0798D67C63A80A5
S31520250CF0D0DBFB84D58BBC9A62967D9EBBB03E937A
S31520250D000CADFF97B110B0AF060D71ABDF2B32A618
S31520250D106836F3A26D66B4BCDA7B75B8035D36B545
S31520250D20B440F7B1090000009549252001010000AE
S31520250D302F572520000100001F61252010010000C6
S31520250D40F967252020010000ED72252021010000CC
S31520250D50016D252000000000000000006F01000025
S31520250D6065090000700137016D0138016E012E02DB
S31520250D7071012F0172013001730131017401320194
S31520250D806C0133016B0134016A0135016901360194
S31520250D9067080000660900006D0138010000000083
S31520250DA0680800006C0133016B0134016A013501A5
S31520250DB06901360100000000000000000000000047
S31520250DC0000000000C0000000C0000000C000000B4
S31520250DD008000000510300000000000052033700E0
S31520250DE04F03380050032E0153032F0054033000A0
S31520250DF055033100560332004E0333004D0334008C
S31520250E004C0335004B03360000000000000000008F
S31520250E100000000000000000000000000000000087
S31520250E200000000000000000000000000000000077
S31520250E300000000000000000000000000300000064
S31520250E400300000003000000070000003504000011
S31520250E500000000034043D00330400003604000061
S31520250E603704390038043A0039043B003A043C005B
S31520250E703B0400003C0400003D0400003E04000025
S31520250E8032040000000000003304000000000000AA
S31520250E9031040000300400002F0400002E04000039
S31520250EA02D0400002C0400002B0400002A04000039
S31520250EB0290400000C0000000C0000000C00000096
S31520250EC008000000630600000000000064063D01BE
S31520250ED000000000000000006506390166063A017B
S31520250EE067063B0168063C01000000000000000063
S31520250EF000000000000000000000000000000000A7
S31520250F000000000000000000000000000000000096
S31520250F100000000000000000000000000000000086
S31520250F200000000000000000000000000C0000006A
S31520250F300C0000000C00000008000000000007102F
S31520250F400608050807060604070405040404060200
S31520250F500000020D0208020602050204020302030E
S31520250F6002030202000007080604050407030602F9
S31520250F7007020502040206010000020602040203F6
S31520250F800203020202020202020202015A04180880
S31520250F900830FF2400000000000000005A0518092B
S31520250FA00831FF2500000000000000005A06180A17
S31520250FB00832FF2600000000000000000000000087
S31520250FC00000000000000000000000009F0403240C
S31520250FD00000000000000000000000009F076007B9
S31520250FE0200B042700000000000000009F87608753
S31520250FF0208B04A700000000000000005A041808D2
S315202510000830FF2400000000000000005A06180AB8
S31520251010FF26000000000000000000005A07180BDC
S31520251020FF27000000000000000000005A06188A4D
S31520251030FFA6000000000000000000005A07208BB4
S31520251040FFA7000000000000000000001F4A252001
S31520251050454C2520000000005B4C2520DB4C252017
S31520251060234D2520AF4D252000000000594E252053
S31520251070454C2520000000005D4E25206B4E252061
S31520251080234D2520834E25200000000000400042C8
S315202510900080004200C0004200000142004001427B
S315202510A00080014200C0124000001340004013403A
S315202510B00080134000C013400000144000C0C540E6
S315202510C00000C6400040C6400080C64000C0C6403D
S315202510D00000C7400000CA400000000000C00740AD
S315202510E000000840004008400080084000C0084015
S315202510F000000940004009400080094000C0094001
S3152025110000000A400040C2400080C2400000000086
S315202511100A0000000C0000000D0000000F00000052
S31520251120140000001A0000001E0000002300000005
S31520251130280000002D0000003400000037000000A4
S315202511403C00000046000000500000000001000180
S3152025115000004001C0000000800180000000C00181
S3152025116040000000000200000000C00040010000F1
S315202511708000800100004000C00100000000000220
S3152025118000000001C0004000400180004000800191
S3152025119040004000C00100004000C0000001400082
S315202511A08000400140004000800140000000C00131
S315202511B04000C000C000800000018000800048015A
S315202511C04000800080010000800080000001800012
S315202511D0400040018000000080018000C000800082
S315202511E0C00000014000C00040010000C000800072
S315202511F0C000C00040000001C00000004001C00022
S31520251200800080000001C000400000010001000090
S3152025121000014000C00000010000000100018000FF
S3152025122040004001C00000004001400080004001F0
S315202512300000C000400140004000800180000000E1
S31520251240800100008000800140000000C0010000D0
S315202512504000C0010000000000020000090080B007
S31520251260080CC0146655100000000000100000F080
S3152025127000000000400000F80000000008000D874F
S31520251280090080B00800A0120403020108070605FC
S3152025129004045082010000A20400881001000000E9
S315202512A000105082F11D26206D1E2620871E262001
S315202512B00000000000000000B91E2620B97B25204D
S315202512C0B5782520157925204F792520317A252091
S315202512D0717A2520817A2520C9792520156825200A
S315202512E00F6B2520A96B2520796C25206D68252057
S315202512F05B6C25206D6C2520C56C25200055560355
S31520251300590C0F5A5A0F0C5903565500653033661A
S315202513103C696A3F3F6A693C66333065663330658A
S315202513203F6A693C3C696A3F6530336603565500FA
S315202513305A0F0C59590C0F5A00555603693C3F6ACA
S3152025134030656633336665306A3F3C690C595A0FDA
S3152025135055000356560300550F5A590C0F5A590C4A
S3152025136056030055550003560C595A0F6A3F3C69BA
S315202513703366653030656633693C3F6A6A3F3C692A
S315202513803366653030656633693C3F6A0F5A590C9A
S3152025139056030055550003560C595A0F0C595A0F0A
S315202513A055000356560300550F5A590C693C3F6A7A
S315202513B030656633336665306A3F3C69035655008A
S315202513C05A0F0C59590C0F5A00555603663330655A
S315202513D03F6A693C3C696A3F6530336665303366CA
S315202513E03C696A3F3F6A693C66333065005556033A
S315202513F0590C0F5A5A0F0C59035655000D372620CE
S3152025140095A3252000000000A1A32520B1A32520F2
S315202514100000000000000000000000000100000080
S3152025142001000000C3182520A4122520B41225204A
S315202514308015252010000000000000000000000077
S3152025144050162520000000006016252000000000EB
S315202514500000000000000000000000000000000041
S3152025146000000000F51E26200F1F2620C51F26203A
S315202514708F202620583C2720956E25200D71252046
S31520251480A771252077722520CB6E252059722520F8
S315202514906B722520B3722520000000000000000075
S315202514A00000000000000004080408000121062190
S315202514B0212100000204020400011003211021002D
S315202514C0000204020200011003211021000001035D
S315202514D00102000110032110210000010201010053
S315202514E00110032110210000010201010001100332
S315202514F0211021000000000000000000000000004F
S315202515004D4943524F4E2020202020205350414ED6
S3152025151053494F4E2020202053414D53554E472089
S315202515202020202057494E424F4E4420202020203F
S3152025153048594E495820202020202020544F5348B2
S3152025154049424120202020204D4143524F4E495883
S3152025155020202020000000000000000000000000C0
S31520251560415B2520FF5D2520F15E2520FB5F25207B
S31520251570C55B2520E9602520FB602520000000008D
S315202515807D212620832126208322262023232620CB
S31520251590812126202F2326205D21262000000800B4
S315202515A00000100000002000000040000000800000
S315202515B000000001000000020000000400000008D1
S315202515C000000010000000200000004000800000E0
S315202515D0000001000000020000000400E56525202A
S315202515E0F565252011662520EF662520AF67252060
S315202515F09D6625200000000021672520E54E252013
S31520251600355325206D54252047562520C54F252081
S31520251610095625201B562520000000005D1826206A
S31520251620E118262000000000E118262000000000F1
S3152025163079192620C1192620000000006B1A26209C
S31520251640A11A2620EB1A2620231B2620571B2620C7
S31520251650F532262001342620AD34262007352620AE
S315202516601535262039352620C935262067362620C4
S31520251670793626207D3626200000000038B50446FA
S315202516803F4D0020C5E90000C5E90200C5E9040053
S31520251690286268623B4800F0B4F8C5E90601204671
S315202516A0BDE834400FF2590100F04AB900F05EB981
S315202516B070B5334E0C46316A072904BF716A8842B4
S315202516C01BD100F06FFDD6E900230546D6E9020198
S315202516D0C5EB05158218B5FBF2F00A2568434FF4AC
S315202516E09662B0FBF2F2521D0A21B2FBF1F14FF4BC
S315202516F0966041432160002070BD012070BD000009
S315202517002DE9F843064600F072F8044688461C4F14
S315202517103A6AD7E90459D7E90601521C651B68EBB5
S31520251720090949453A6205D828BFA84202D201208F
S31520251730386208E0012A06D0042A08D0052A0ED0C8
S31520251740072A0FD018E0C7E900487E6214E0D7E9BA
S315202517500001201A68EB0101C7E900010CE0C7E961
S31520251760024809E0D7E90201201A68EB0101C7E9F9
S315202517700201304600F0FAF8C7E90448BDE8F183AE
S31520251780002427208038010080B53649364B012094
S315202517900860002235481A604FF0FF3101618261C9
S315202517A00123C361826942F004028261826942F083
S315202517B0010282610160C360836000F0F3FC2C493D
S315202517C0B0FBF1F000B901202A49886001BD10B58A
S315202517D003202649002302018C18401EA3608B5026
S315202517E0F9D52148016841F00201016010BD224842
S315202517F081B0016840680090C9430098C04301B074
S3152025180070471C498A68A2FB0001704770B50646B9
S31520251810FFF7EDFF044617480D468168E1FB06458F
S31520251820FFF7E5FFA942FBD301D8A042F8D370BD27
S3152025183010B50446FFF7DBFF0E4A9368E3FB040148
S31520251840C2E9000110BD38B5FFF7D1FF094AD2E913
S315202518500045A94204D301D8A04201D3012032BD97
S31520251860002032BDC067CC4000800D4000810D4050
S3152025187040420F0028242720E0800D404901020000
S3152025188002D4454881547047444A00F00F00131866
S3152025189003F8041C704710B5039C240101F00F01A1
S315202518A004F010042143016002B1136010BD7CB5FC
S315202518B0069C009400250195FFF7EDFF0E26266050
S315202518C073BD3EB5364C3748374A19B102291BD048
S315202518D008D337BD354801600222226000230360E4
S315202518E0226037BD0092002501950023002205217F
S315202518F0FFF7D1FF606840F00C0060602C48016836
S3152025190021F08071016037BD00920023294A0021EC
S31520251910FFF7CDFF00940023002200212348FFF75F
S31520251920C6FF37BD10B5244C2068C00107D52349ED
S31520251930496821B1012088474FF08071216010BD6B
S3152025194010B51E481E4C416004221821204600F061
S31520251950DBFC606940F08070606101216920FFF71A
S315202519608DFF18494FF40070086010BD80B51649C3
S315202519704FF400700860BFF34F8FBFF36F8F0021A0
S315202519806920FFF77BFF002218210D4800F0BCFCBB
S315202519900A490020486001BD00E400E018ED00E07A
S315202519A0B0830E4070810E40B4830E406C810E406C
S315202519B0044013401C860E4018401340503C2720D7
S315202519C0004013400CE100E08CE100E010B5DFF883
S315202519D0DC070168480ACA0500F001004CBF4FF410
S315202519E08062002288B1DFF8C8472020206042EA9D
S315202519F0016222610120216841F48071216000F075
S31520251A0096F8216821F48071216010BD81B00320CC
S31520251A100090DFF8A0070168C1F3405040B3009835
S31520251A20DFF89427DFF8941790B914231362106AE8
S31520251A304300FCD5086840F480700860136843F09D
S31520251A4004031360086B0A6822F480720A600FE08B
S31520251A50009801280CD10B6843F480730B6010681D
S31520251A6040F0040010600A6B086820F48070086036
S31520251A7001B0704710B5DFF84847DFF848072168D9
S31520251A80014041F0080100F043F821F4F05141F4DA
S31520251A90002141F4A05100F03BF8C82000F047F87A
S31520251AA0216841F0200100F033F8642000F03FF84A
S31520251AB0206840F0040027E010B5DFF80C47DFF852
S31520251AC00C072168014041F0040100F021F841F07E
S31520251AD0010100F01DF84FF4967000F028F82168D2
S31520251AE041F4003100F014F84FF4C87000F01FF8C7
S31520251AF0206840F480202060BFF36F8F322000F0CD
S31520251B0016F8206820F004002060BFF36F8F10BDE3
S31520251B102160BFF36F8F7047DFF8B416DFF8B40660
S31520251B200A68C2F3800109B1DFF8AC0670470028A0
S31520251B3000D1704710B5DFF8A426DFF8A446136830
S31520251B40DFF8A016B3FBF4F4604348600522002095
S31520251B5088600A600868C203FCD500200860886072
S31520251B6010BDDFF88406016849084900016002692D
S31520251B7042F00102026129E770B5DFF8581688423E
S31520251B801CD1DFF86856DFF868462560BFF34F8FEE
S31520251B90BFF36F8F00F079F8DFF84026DFF840662F
S31520251BA01368B3FBF6F21E200021424323689800D2
S31520251BB00DD4491C8A42F9D2052070BDDFF81816A6
S31520251BC0884208BFDFF82C56DDD0042070BD45F4A9
S31520251BD080452560002025F08045256070BDF8B517
S31520251BE0DFF8F015884224D1DFF80C56DFF80C46AD
S31520251BF0DFF8EC65216A61F0C031216200F044F8F6
S31520251C0045F4001545F4006500F03EF825F40065F9
S31520251C10DFF8C82525601E201368B3FBF6F30021BF
S31520251C2043432768BE000DD4491C8B42F9D2052093
S31520251C30F2BDDFF8A415884208BFDFF8C455D5D0F4
S31520251C400420F2BD45F4005545F00805256025F00C
S31520251C5080452560DFF8AC15DFF884552162236A97
S31520251C60216981F01E01216123F0BF331268B2FB61
S31520251C70F5F500216843226A1A4203D0491C884279
S31520251C80F9D2D4E70020F2BD25601E204FE770B596
S31520251C900021DFF8402590422CD11620DFF8684513
S31520251CA0DFF83C55226B62F07F3222634FF0FF33FB
S31520251CB02366216420651E20DFF850152160FFF755
S31520251CC036FFDFF84C152160FA20FFF730FFDFF8C5
S31520251CD044052060FA21DFF804050368B3FBF5F3F4
S31520251CE000224B432668B5000ED4521C9342F9D2C6
S31520251CF0052070BDDFF8E014884203D14FF000415E
S31520251D001B20CBE7042070BDDFF80C25DFF80C352A
S31520251D10DFF80C55226023602563236B2269DFF8C3
S31520251D20C05482F01E02226123F0BF330068B0FB27
S31520251D30F5F500226943206B184203D0521C9142A7
S31520251D40F9D2D5E7DFF8DC14DFF8DC2440F20140B0
S31520251D5008601060002070BD38B50446DFF8CC0435
S31520251D601421016002685100FCD5FFF7D5FE0546F2
S31520251D7014B1FFF701FF48B900F018F92846FFF7F7
S31520251D802EFF18B92846BDE8324080E732BD2DE919
S31520251D90F84FDFF83C542A6800F0FAF828BF0124CA
S31520251DA000286DD1DFF888B4DFF88864DFF88874D9
S31520251DB0CBF80000002131603860DFF88084DFF819
S31520251DC080A4C8F80010FFF7CCFEFFF71FFE601E83
S31520251DD000F0FF092868DFF86C14A2006300C0F321
S31520251DE0C00000BB4FF002100860086A0028FCD40A
S31520251DF000F0C8F8CBF8000043F40073521E336078
S31520251E0002F0FF023B6042F40072C8F80020002051
S31520251E10FFF7A2FF4FF40170DFF82C14CAF8000053
S31520251E20B1FBF4F128E0521E02F00F00120402F451
S31520251E307F0202431D4604EB44040A60086A0028F3
S31520251E40FCD40120FFF788FF6D1E49F4806005F03C
S31520251E50FF05641ECBF8000045F4007504F0FF0449
S31520251E60356044F480643C60C8F8004040F2024066
S31520251E70CAF80000DFF8D413DFF8602311608EE05E
S31520251E80BDE8F18F2DE9F84FDFF84463326800F07D
S31520251E907FF828BF0124002872D1FFF762FEFFF7BD
S31520251EA0B5FDFFF7E7FDFFF707FE601E00F0FF09EA
S31520251EB03068DFF88853DFF880A3DFF878B3DFF8BA
S31520251EC07083DFF8802304EB4407A1006300C0F369
S31520251ED0C00048BB7F1E07F00F003F0407F47F078D
S31520251EE007431760106A0028FCD400F04BF8C8F881
S31520251EF0000043F40073491ECBF8003001F0FF01A2
S31520251F00CAF8003041F4007129600020FFF724FF2C
S31520251F10DFF82C13DFF83023B04B4FF4017008601F
S31520251F20B2FBF4F21A602AE00C467F1E390407F02C
S31520251F300F0001F47F0108431E461060106A002811
S31520251F40FCD40020FFF708FF761E49F4C06006F072
S31520251F50FF06C8F8000046F4A06607F0FF07641EB2
S31520251F60CBF8006047F4806704F0FF04CAF80070B8
S31520251F7044F4A064B2492C6040F2024008600EE089
S31520251F80BDE8F18F5B1E49F4007003F0FF0370470F
S31520251F900121C2F3011401FA04F4092C704700F03B
S31520251FA067FCBDE8F44F042100F09CBB38B5A84C4E
S31520251FB0A84D0020206040F20511216164202A6861
S31520251FC082F480322A60FFF7B2FD4FF480312160FA
S31520251FD04FF480722868A04980F4803028600A60F2
S31520251FE00120FFF7A4FD286F40F01000286731BD9A
S31520251FF070B58F48016800291CBF0068002801D1CB
S31520252000002070BD724E754D31680120C1F3011433
S3152025201000FA04F4092C28BF012400F01CFE40B147
S3152025202030686400C0F3C00000280CBF86488B4862
S3152025203009E03068C0F3C00050B189480168C1F372
S31520252040800038B98148B0FBF4F02860012070BDA6
S315202520507D48F8E78349B1FBF4F12960F6E710B509
S31520252060040005D15D495B480860FFF7C1FF50B9DB
S3152025207000F0F1FD0028204602D0BDE8104001E7FA
S31520252080BDE8104083E610BDF8B5774C774D20681E
S31520252090774E40F0020020604FF00041A963286B5F
S315202520A020F080402863286B40F440402863286B25
S315202520B040F4C0102863306840F40010306037683B
S315202520C0FFF72AFD434927F0E07788420CBF47F4DE
S315202520D0400747F0A0773760306840F4405030609D
S315202520E06420FFF793FB306840F0400030604FF4C2
S315202520F08031B1600021286B20F08040286329603B
S3152025210020684008400020600120F2BD07284FF4B2
S31520252110A0614FF4E0624FF4C06316D8DFE800F0E3
S31520252120040609150D0C0F120F200FE019460E2057
S315202521300CE019460B2009E01146042006E011463D
S31520252140032003E01946022000E0072001434948E1
S31520252150016070474849012008607047464900209C
S31520252160086070473448016801F0FF00090A01F02C
S315202521700701891E052904D8DFE801F00507090B83
S315202521800D0F14490AE0304908E03C4906E0334959
S3152025219004E03B4902E03B4900E03B49401CB1FBBA
S315202521A0F0F07047DEE73948704700001041C840F7
S315202521B02049C84010CACA400040C840C040C8402F
S315202521C01045C840DAFFF7FF3045C840FEFFF9FF26
S315202521D0A0C9CA4000366E0100F8240184072720AD
S315202521E040420F0010E000E05040C84074200040D7
S315202521F00042C84091200040130000401042C840AC
S31520252200150000400D1120184042C8400800004006
S31520252210080880400800804008208040082080004B
S315202522201B101820001DCC40801DCC402040C840C6
S315202522300000CC408000CC400001CC408001CC4021
S31520252240800CCC400040CC400084D717001E7C292A
S315202522502048C8400045C8408045C84000389C1CB9
S3152025226070C8CA400065CD1D40014340004043400B
S31520252270A04043400002CC402064CC400024F400FA
S3152025228000C2EB0B00A4781F40DCB31100B4C404B4
S31520252290F8B506460C4615460020144951F8202047
S315202522A0B24202D0401C1328F8D300BF30A3104ACF
S315202522B0185640010121115001FA04F77269F94394
S315202522C00A407261287818B970680140716007E064
S315202522D06A782146304600F00DF870680743776006
S315202522E02146AA783046BDE8F8400DE08C102520F9
S315202522F00060CC40012303FA01F184300AB94160FC
S315202523007047016070470000F0B50124C36904FABF
S3152025231001F5AB43C361102932BF00F10C0300F14F
S3152025232010031039490003268E40F743521E042AEE
S315202523301DD8DFE802F003070D1519001868074098
S315202523401F60F0BD1A6817408C403C431C60F0BDC9
S3152025235018680224074004FA01F139431960F0BDB3
S3152025236019680E431E60F0BDC2691543C561F0BDCF
S31520252370FF3333333333000038B5144600252CB1CB
S31520252380042903DA012818BF022801D0042032BDEA
S3152025239011B1022906D042E0002000F0BFFC2060C2
S315202523A0284632BD0021012808BFDFF8D41403D0E2
S315202523B0022808BFDFF8CC140868096801F0FF0158
S315202523C0000A491C00F007000728DFF8BC2424D87A
S315202523D0DFE800F004071114171A1D20B2FBF1F0CF
S315202523E0DDE7DFF8A8040368C3F380000028F5D0CD
S315202523F0DFF89C24F2E7DFF89C24EFE7DFF8982422
S31520252400ECE7DFF89824E9E7DFF89424E6E7DFF818
S315202524109424E3E7DFF89024E0E70325C0E70425A5
S31520252420BEE72DE9F84F012884B014D1002200916A
S31520252430096CC80548BF521C7820DFF87014424322
S315202524408C18009901F1500604F1440530690028BD
S3152025245008BF686A04E0022840F0E1800222E6E708
S315202524600390D6F81C807069B8F1000F08BFD5F8FF
S31520252470308000B9A86A0290B06900B9E86A01904F
S3152025248004F124073068DFF82894DFF828A4DFF83C
S3152025249028B410B9706820B96BE02078617800F0EF
S315202524A0E5F8706800281CBF2079002802D06179BC
S315202524B000F0DCF8207A10B1617A00F0DDF80023EF
S315202524C0019900F0C9F892F800E04AF82E1000F09C
S315202524D0BCF8042BF5D30098019190F845100829CE
S315202524E00ED1387860B10199042300F0B5F892F819
S315202524F000E04AF82E1000F0A8F8082BF5D3019114
S315202525000098007B032818BF012821D10098016C4B
S31520252510880509D5D6F81C800FF2B830B8F1000FFA
S3152025252004D14FF0080801E004F1100000281CBF53
S31520252530017800290CD0427842F010024BF8212050
S3152025254001784AF82180817811B1C07849F821008F
S31520252550009800F07AFC00281CBF207B002808D094
S31520252560617B00F089F8A07B18B1E07BA17B49F837
S315202525702100B06810B9F06828B950E0387C10B130
S31520252580797C00F073F8F06800281CBF387D002878
S3152025259002D0797D00F06AF8387C002804BF387D82
S315202525A000283CD0387E10B1797E00F065F80022CF
S315202525B0019900F037F8042AFBD3009890F8452096
S315202525C0082A06D1287D20B1042200F02BF8082AD6
S315202525D0FBD30098007B032818BF01280ED1287825
S315202525E060B1697841F010014BF820104AF8208017
S315202525F0A87818B1E878A97849F82100009800F03C
S3152025260024FC00281CBF387F002808D0797F00F0BD
S3152025261033F8B87F18B1F87FB97F49F8210005B07E
S31520252620BDE8F08F04EB820000F148035E78187828
S315202526304BF8206093F800C04AF82C10987810B1F2
S31520252640DB7849F82030521C7047907810B1D27823
S3152025265049F820205B1C704704EB830000F1140207
S3152025266092F801C010784BF820C070474BF82010FF
S31520252670039A4AF82020704741F010014BF8201084
S3152025268002994AF82010704738B504460D46002091
S3152025269000F044FB8A49B0FBF1F122462B46541E15
S315202526A063F10005002B08BF002A08D08A08521C92
S315202526B01046421E002818BF00BFF9D1EDE731BDCF
S315202526C07E490860002070477C490A680260002000
S315202526D07047042011B17B480860002070470020F0
S315202526E070470000FEB5044604206CB3022C2BD877
S315202526F0082929D20025012C08BF614D02D0022C9C
S3152025270008BF604D2E6861F30A2600BF72A191E8A5
S315202527108C00684680E88C002868864213D020469F
S3152025272000F08FF808B92E600DE05DF8240000F042
S3152025273068F82E60204600F06AF85DF824000168C6
S3152025274021F0020101600020FEBD0000F8B5012A16
S3152025275084B004464DD800294BD0012C08BF484DBE
S3152025276002D0022C45D1474D2B681B0A0026002076
S3152025277003F00703032B03D8DFE803F0143F3D417D
S31520252780514B1E18012A04BF181800F128060A29BC
S3152025279028BF012116F8110006EB41014E78761E39
S315202527A006F0FF064FA292E8881001A9000200F440
S315202527B0E06081E888100643204600F042F801AF04
S315202527C018B157F8240000F01CF829688E4218BF46
S315202527D02E60204600F01BF857F82400016821F0CA
S315202527E0020101606A460021009120460221FFF759
S315202527F0C3FD05B0F0BD1420C2E70120D2E7032092
S31520252800D0E7016841F00201016020460CE001284D
S315202528102E4902D0022806D1203101200860BFF397
S315202528204F8FBFF36F8F70470128284902D0022882
S3152025283006D1203100200860BFF34F8FBFF36F8F5D
S315202528407047014600200129204A02D0022903D1BA
S315202528502032116801B10120704741B1C90001F02C
S31520252860380141F001020266C166426682667047DA
S3152025287000E0000016480068C0F3C020401C7047C1
S31520252880000ACC40800ACC4000366E01A0C9CA4039
S3152025289000B0710B0084D7170024F400E04B9D2748
S315202528A000A4781F007B9A1700389C1C5C0D2520D8
S315202528B098840E4054820E4010800E401C40C04005
S315202528C040420F0080F5E4093C0F25208063CC404B
S315202528D00840C04012062E000000000000C00C4013
S315202528E000000D400000000000C00C4000000D40F7
S315202528F040010329DFF8782302D1012111507047A1
S315202529000023135070470000F0B5DFF86823DFF861
S315202529106833002111600C241C60002555605C60FD
S3152025292095609C60D560DC6015611C6155615C6194
S3152025293095619C61D56100F10806DC613178DFF867
S315202529403C43DFF83C5321B1012904BF717E102970
S3152025295012D1002696670C219967D667D9672E60EE
S315202529600C2727606E606760AE60A760EE60E76023
S315202529702E6127616E6167610021D1640C26DE6494
S3152025298011651E6591659E652962042626629164D8
S315202529900C269E6490F83000BA49BB4E401E03286B
S315202529A017D8DFE800F0110C0702002151640C200E
S315202529B05864F0BD0222B2600C208860F0BD022248
S315202529C072600C204860F0BD022232600C2008601F
S315202529D0F0BD002169620C206062F0BD401E0328EF
S315202529E0AA494FF0805311D8DFE800F00208030BDF
S315202529F0A74901F1840042B1436070474FF4003363
S31520252A00F7E74FF48033A349F3E70360704748B1CE
S31520252A10052807D2A04A02EBC01000F5A85340F29C
S31520252A200921196070470000F0B5401E03289B4BED
S31520252A309B499C4A954C9C4D9C4E60D8DFE800F0DE
S31520252A40021A3047002010600B240C600025D56023
S31520252A500B20C86001241C6095608860052353607F
S31520252A6048608B48416841F080514160026842F0B8
S31520252A70805243E0062050650C254D6510660D666F
S31520252A80012058610623D365CD65052393658D657C
S31520252A90616841F400316160206840F4003014E01B
S31520252AA0092797670C208867D767C8670121196387
S31520252AB037600C222A60052171606A60616841F0C1
S31520252AC080516160206840F080502060F0BD09214A
S31520252AD0B1640C20A864F164E864012119640920F5
S31520252AE030650C2129650520706569656948416829
S31520252AF041F480314160026842F480320260F0BDA3
S31520252B0030B587B00446FFF782FF2046FFF78CFFB6
S31520252B10052C88BF012011D879A050F82450684665
S31520252B2000F024FF62480090002214B1052C38BFFE
S31520252B30604A6946284600F0BBFE002007B030BD16
S31520252B40002070475C490A68FF20120912F00F02FF
S31520252B5009D0921E052A08D9921F032A07D9121FA2
S31520252B60032A06D970470120704708207047402040
S31520252B7070470220704770475048C16808695049F8
S31520252B800A6882640969C164704738B50020FFF751
S31520252B9066FA4C484C4B0168C1F305412D290BD3C8
S31520252BA0BFF34F8FD968494801F4E0610143D960C5
S31520252BB0BFF34F8F00BFFDE70620454A41435418F2
S31520252BC04448A1881B68C3F30B1340F6244500EB24
S31520252BD08120AB424049414A0FD0002313604FF054
S31520252BE0005365885361AD026D1E55606FF06043B5
S31520252BF0248803EB8423936105E0394B394C1360F4
S31520252C005460536194619162D0620321BDE83440BA
S31520252C1000E0002173206BE610B5334A334811684E
S31520252C20C1F3031109B1324810BD324B11691C6815
S31520252C30C1F3400104F002042143012901D12E4884
S31520252C4010BD11691A68C1F3400102F00202114331
S31520252C5008BF2A4810BD1C480068C0F30B1040F653
S31520252C602441884201D10120704700207047000069
S31520252C700060CC4010800E4054820E40D4820E40F7
S31520252C8090800E40B8830E4074810E4000801340FC
S31520252C900040134000C013400000CC40D4850E4090
S31520252CA0C0830E407C810E4040840E40FC810E4020
S31520252CB080969800005A62020840C04010002720BE
S31520252CC000C9CA4070CCCA4000ED00E00400FA05D0
S31520252CD04C112520FFFF37200000202064062720C1
S31520252CE00000FE1FFFFF0120D0C8CA40CC4241402C
S31520252CF03342414860C9CA40F042414800424148D2
S31520252D0000000000004011400080114000C0114005
S31520252D100000124000C0C2400000C34010B5112853
S31520252D203FD8DFE800F0093E3E3E3E1F22242628D6
S31520252D302A2C3E303436383AFFF78DFF002819BF26
S31520252D40304800683049086800F0FF04641CC0F349
S31520252D50022002280EBF2D48002000F024F8B0FBC3
S31520252D60F4F010BD4FF4004010BD00200CE00320E8
S31520252D700AE0002004E0012002E0022000E00320F2
S31520252D80BDE810402EE00220BDE810400BE00020D3
S31520252D9004E0012002E0022000E00320BDE81040E7
S31520252DA010E0002010BD20B1022804D0032804D02D
S31520252DB005E0174870471748704717487047002081
S31520252DC0704700000146002003290AD8DFE801F0D4
S31520252DD00204060811487047114870471148704764
S31520252DE0114870470146002003290AD8DFE801F05B
S31520252DF0020406080D4870470D4870470D48704750
S31520252E000D4870478000CC400000CC400084D71761
S31520252E108083902F00A4781F00389C1C0018FB1453
S31520252E2080B86723007B9A1740DCB311D9399D27B3
S31520252E30A5104B1E80DF1710002A751590F8400027
S31520252E4010F0040018BF0120704790F8400010F0BC
S31520252E50010018BF012070472DE9FF4781460D4601
S31520252E6000F0B1F80426040018BF002D00F0868056
S31520252E70287B042880F28280032801AE13D195F879
S31520252E80400081070FD46A4602214846FFF774FA87
S31520252E900098DFF80C1688420AD395F840000106DB
S31520252EA006D4792001E04FF480700190706044E0CB
S31520252EB000274FF47A7805EB47007830417879BB9F
S31520252EC000786421484323D1286C800900F0010A23
S31520252ED0524603A94846FFF7FCFBBAF1000F0BD152
S31520252EE00399DFF8C005B0FBF1F1490808FB01F18C
S31520252EF04B20B1FBF0F112E00398DFF8A815B1FBC2
S31520252F00F0F0800808FB00F04B21B0FBF1F106E03C
S31520252F104B22B0FBF2F14B234B43834200D2491C73
S31520252F20402928BF3F21490201F4FC4141F4807103
S31520252F3046F827107F1C022FBDD32068400800F0B5
S31520252F40010090F0010003D0216841F002012160A3
S31520252F5004F1C002296D002907BF696D0029019B4F
S31520252F601360A96D002907BFE96D00297168516095
S31520252F7018B1206820F0020020600026304604B0D3
S31520252F80BDE8F08710B504460420002C18BF002A7A
S31520252F900FD073B1DFF80C05B0FBF2F04343B1FB3C
S31520252FA0F3F000E0401C00FB03F28A42FAD32060AE
S31520252FB0002010BDD0F8E010CA07FBD5D0F8E010C8
S31520252FC08A07FBD570470146002003293CBF0FF60B
S31520252FD02C0050F8210070472DE9FE4F0E46002182
S31520252FE000918146FFF7EFFF04245FEA000B18BF07
S31520252FF0002E4BD006F15008002506F5C87458F842
S31520253000040B0BEB850A800ACAF86000707BB77B18
S31520253010400107F01F0700F478700743F07BC002B4
S3152025302000F4F040074396F840000107706F48BF2B
S3152025303047F4806768B101AA02214846FFF79CF923
S31520253040019A716F01236846FFF79CFF009847EA8E
S315202530500047CAF8707096F8470000281EBF2178C9
S315202530604A0112F0E00F09D06078491E0002490373
S3152025307000F4706001F46041084301E04FF41060CC
S315202530806D1C042DCAF88000B9D300242046BDE83E
S31520253090FE8F042210B5002818BF00291ED04031E6
S315202530A00A79012A0AD1C26809785208520042F0C3
S315202530B040024B0748BF42F00102C260C168DFF8D3
S315202530C0E84341F02001C160002100EB8102491C23
S315202530D0136A234007291362F7D30022104610BD11
S315202530E078B5044689B0042031B300258DF80050E3
S315202530F001260325039602958DF81020019391F834
S31520253100470000281EBF01F5C4721078002803D079
S3152025311053780293127803922046029D039B01EB56
S31520253120051606F18002012100F088F90122029276
S315202531306946204600F0BEF90AB070BD2DE9F84F44
S315202531408EB080460D46FFF73EFF0424060018BFA5
S31520253150002D00F06A81287C002804BF287F0028BE
S315202531601DBF296C090901F0010100218DF80010E8
S315202531702868CE49884240F058814046FFF754FBBF
S3152025318029464046FFF74DF99DF8000010B100224B
S31520253190012106E02A6C05F145009209417802F0C5
S315202531A001024046FFF7D2FA4046FFF730FB30684A
S315202531B020F002003060316841F00101316030682D
S315202531C0C107FCD44DF60F70326842F002023260F8
S315202531D0316895F845200140082A287B08BF41F407
S315202531E00051000100F03000014341F07F4141F4B8
S315202531F07F013160B06820F40040B06095F840002A
S31520253200C10703D5B06840F40020B0602946304672
S31520253210FFF73FFF29464046FFF7DEFE2946404673
S31520253220FFF71AFE306820F002003060B14631687B
S3152025323041F001013160D9F80000C107FBD405F121
S3152025324080020392287C00285FD005F1500B2F465B
S315202532500420464600255BF804ABBAF1000F4DD075
S315202532603046FFF7B0FE00284FF0040842D0D0F8AC
S315202532700002C0F3012028B1787C022808BF4FF030
S31520253280000837D001218DF8101005950022787D6C
S3152025329006902B46397D07918DF8202007F11801B8
S315202532A00991CDF8288039463046FFF719FF03982E
S315202532B00699079B00EB01120121304600F0BEF846
S315202532C00120069004A9304600F0F4F85FEA0008AC
S315202532D010D1788A60B9797C022918BF032907D0AD
S315202532E02B4600223946304600F0DDF9804601E09E
S315202532F000F09FF85FEA080002D15544641EAAD142
S315202533000400B0463D4640F09080287F00286ED0A8
S31520253310042405F150010027049101940498001DE9
S31520253320049050F8041D029100295BD04046FFF7F2
S315202533304AFE0424002852D001228DF814202E4638
S31520253340002206978DF824200B948246002506EB2D
S31520253350850101F12002507800283CD0DAF80002B8
S3152025336006EB050BC0F3012018B19BF81D0002289A
S3152025337031D0507807903031127808920A913B4601
S31520253380002231464046FFF7ABFE040026D103989E
S315202533900799089B00EB01120121404600F04EF8C3
S315202533A00120079005A9404600F084F8040015D190
S315202533B0708A28B99BF81D10022918BF032902D126
S315202533C000F037F807E03B4600223146404600F01C
S315202533D06AF9040002D16D1C022DB8D9354624BBC5
S315202533E00298C7190199491E019197D1ECB99DF8E3
S315202533F00000C8B1D9F8001041F00201C9F8001023
S3152025340005F145002A6C4178920902F001024046D1
S31520253410FFF79CF929464046FFF71EFDD9F80000FF
S3152025342020F00200C9F80000002420460FB0BDE890
S31520253430F08F642148430021FFF726B92DE9F8436B
S315202534400E4691461D46FFF7BEFD040018BFB9F16D
S31520253450000F4FF0040821D000270021701979414B
S3152025346000291BD8112819D22046FFF7A3FD10487D
S31520253470A0610221E161B10004EB8102AE1902F5BA
S31520253480007204E059F8043B42F8043B491CB1EB91
S31520253490860FF7D3A061B8460120E061EBE0000056
S315202534A000E1F50500CA9A3B00FEF0F84643464260
S315202534B0F05AF05A2DE9F84307460D46FFF783FDC6
S315202534C0040018BF002D4FF0040800F0D48028787A
S315202534D0042880F2D08095F810902046FFF76AFDC3
S315202534E0384600F066F9606940F01E00606104F1F7
S315202534F0A0076868386000262878022808BFAE69A4
S3152025350002D0032801D12E6AB6B2A868000400F499
S3152025351070200643E868401E000600F0E06006435A
S3152025352046EAC9767E602878032834D1EA69286A4E
S3152025353012F0030138D11C23BB61B96941F0010181
S31520253540B961B969CB07FCD4396941F001013961E3
S3152025355008B3402804F5807314D3616989064FF092
S31520253560100C04D414E053F8041B42F8041B5FEA1C
S315202535700C01ACF1010CF6D1616941F020014038EE
S31520253580616105E0396DC90001F4FF61814227D2C9
S3152025359061690B07DCD52878022818BF012844D174
S315202535A06A69A96912F0030065D11C23FB61F869B4
S315202535B040F00100F861F869C307FCD400260029EC
S315202535C033DD6069400604F5C0732BD540294FF0BD
S315202535D0100C42D316E053F8041B42F8041B001F97
S315202535E00428F8D240B119680091694611F8013BA3
S315202535F002F8013B401EF9D16069CCE752F8040B4D
S3152025360043F8040B5FEA0C00ACF1010CF6D14039E6
S3152025361026B9386940F0010038610126606940F0F5
S315202536204000606160690307C9D5287818B93869CB
S3152025363040F0010038612046FFF7BCFC6069010790
S3152025364017D5786CC0F303600E280CBF41F6583881
S3152025365041F659380FE043F8040B5FEA0C00ACF12C
S31520253660010CD5D00029D2BF0020091F52F8040B02
S31520253670F1E74FF000084046BDE8F28380B5FFF715
S31520253680A2FC18B1D0F8E0108A07FBD501BD80B57C
S31520253690FFF799FC30B1016841F00101016002680C
S315202536A0D107FCD401BD2DE9F84F00298EB04FF066
S315202536B0040979D001F170049246E689A5890693F5
S315202536C0012203238DF8143002FA05F8BAF1000FEA
S315202536D00892079202AD14BF082304230C950D9357
S315202536E08DF824A091F84720002A1EBF01F5C27324
S315202536F01A78002A03D05A7807921B7808930490C3
S315202537000798089B01EB00150146049805F18002D0
S31520253710FFF794FE24685FEA040B18BF4FF0010BD0
S315202537200025049805A9FFF7C5FE5FEA00093BD1C8
S31520253730BAF1000F1AD001A96A4602AB042013F864
S31520253740017B01F8017B401E13F8017B02F8017BE2
S31520253750F5D1002E0199009803D0014038EA0101C0
S3152025376002E0014311EA08010F4608E0002E0298DF
S3152025377002D038EA000001E018EA0000074618BF03
S315202537800127F8B210EA0B0F0BD0002D08BF002C0D
S315202537900CD04FF47A700021FEF776FF641E65F172
S315202537A00005FFB2002FBCD148463FE641F65A39DF
S315202537B0FAE780B5FFF707FC58B1002100EB810217
S315202537C0491CD2F8803043F000430429C2F88030C2
S315202537D0F4D301BD38B50D46FFF7F5FB04000BD014
S315202537E0FFF7E8FB25B1206840F40060206031BD55
S315202537F0216821F40061216031BD00000000000010
S3152025380000C00C4000000D4040010329DFF86C253F
S3152025381002D10121115070470023135070470321EF
S31520253820F2E70029016912BF41F001014908490043
S3152025383001617047426A520801F0010141EA4201BD
S31520253840416270470369520242EA01221A43026104
S315202538507047120401F00F0102F47022114381658D
S315202538607047000010B50146002000BF05A2C3B24F
S3152025387052F823308B4203D0401CC4B2072CF6D3F2
S31520253880C0B210BD0000000000401140008011404C
S3152025389000C011400000124000C0C2400000C340B5
S315202538A010B50C46FFF7DEFFDFF8D4140C5410BDF7
S315202538B07CB50D460021009104461646FFF7D2FF1A
S315202538C000F084F801212046FFF7B4FF6A7E297E81
S315202538D0204600F083F8616AEA7EDFF8A80492067E
S315202538E00140A87E02F080620006114300F0407058
S315202538F0014361626B4629683246204600F079F8F5
S3152025390000F060F8697A287A00F056F8A87AC0057A
S3152025391000F4000001436868401EC0F30B000143F4
S315202539200098C00600F060500143287E000600F06E
S3152025393040700143216620460121FFF772FFE96881
S3152025394033460122204600F0A9F82969334602226A
S31520253950204600F0A3F8696933460322204600F065
S315202539609DF800212046FFF79BFF73BD10B5044621
S315202539701C2100F07BFADFF8102422600823002082
S31520253980636020726072A0722268DFF80014B1FB92
S31520253990F2F25200E26008462168B0FBF1F14900B7
S315202539A021612168B0FBF1F1490000206161207673
S315202539B06076A076E07610BD890701F0804141EA40
S315202539C0C071704700220021204642E701A10856F2
S315202539D025E70000FF68696A6B00000010B50831ED
S315202539E0436A01248C40A34302FA01F1194341621B
S315202539F010BD2DE9F04705468A46686AC0079446D4
S31520253A001C4602D52969C80701D500202EE04FF08E
S31520253A10FF300722FF234FF0000E00210FF24448E6
S31520253A20002618F80190B71C07FB09F9BCFBF9F904
S31520253A30CA4507D3AAEB0907874203D238460A4641
S31520253A403346CE46761CFF2E02D80028E9D104E03F
S31520253A50491C072901D80028E2D1286C000A03F041
S31520253A60FF0343EA00232B6422607046BDE8F087D6
S31520253A70012A04D011D3032A0BD004D37047026C14
S31520253A8061F3174208E0026C22F07F4242EA016286
S31520253A9002E0026C61F30F22026470472DE9FD478F
S31520253AA083B00E4603990FF2BC300A6EC2F3C2616B
S31520253AB0445C9DF81020B3FBF4F000210125CDE9C7
S31520253AC00001032A4FF0FF384FF0FF0A0AD1DFF80D
S31520253AD0844300F042F8DFF880033B2100F0E6F925
S31520253AE0022508E0DFF8A44200F037F8DFF86C035A
S31520253AF03B2100F0DBF9C94501D8B44207D39DF80F
S31520253B00102003980021FFF7B3FF204622E04446E4
S31520253B10002702968046DDE900237819DFF86C1206
S31520253B20A1FB000100F0C2F9494501D8B04205D3D1
S31520253B30821BA24202D21446BA4680467F1CFF2FFC
S31520253B4001D8002CE7D19DF8102003985146FFF780
S31520253B508FFF404606B0BDE8F087DDE90023B4FB9C
S31520253B60F0F4894670478368E3B10168002904BFCC
S31520253B704168002916D0052A07D28068B0FBF2F1C4
S31520253B8002FB110272B90120704712F0030F8068DB
S31520253B9002D09042F7D005E0B0FBF2F102FB1102EC
S31520253BA0002AF0D0002070472DE9F84F054684B02D
S31520253BB02C6EC4F30B040F46641CE11DC908019124
S31520253BC0FFF750FEDFF8B81111F80080019A21463B
S31520253BD03846FFF7C8FF00285CD06869C10148BF71
S31520253BE04FF4C87057D43C68786800900122BE6887
S31520253BF0B868029048EA082040EA0840696840EA01
S31520253C00086B0120090A884003904FF00009F868BF
S31520253C100709010D800D01F0010800F0010A012197
S31520253C202846FFF70FFEDFF838126961009808B994
S31520253C304FF4002900212846FFF7F3FD686A20F076
S31520253C4008006862686A00F094F818BFB0F1007F12
S31520253C5004D1E4B9686A40F080606862012128466B
S31520253C60FFF7DFFD286E20F04E7040EA48503F06CC
S31520253C7049EA000007F0407707432F660198052873
S31520253C800AD201A991F80090CDF804900BE000986E
S31520253C900028E3D004204CE004210191894602E046
S31520253CA00097CDF808808EB3019886423CBFF0B2A6
S31520253CB001900398E96D01F01F018142FAD0039006
S31520253CC03CB101995246204600F062F88346019878
S31520253CD00444C5F864B001990098761A0028E2D0E4
S31520253CE0DDF808800746E86DC0F304400028D7D0C4
S31520253CF0C845696F38BF5FFA88F953464A4638461C
S31520253D0000F07EF84F44A8EB0908ECE7E86D039907
S31520253D1000F01F008842F9D0286E20F480102866EE
S31520253D20009860B968694105FCD56869C101FCD44C
S31520253D30002005B0BDE8F08F00940296C146029872
S31520253D400028F2D0009C0646C846E86DC0F30440FC
S31520253D500028F1D04645696F38BF5FFA86F8534665
S31520253D604246204600F04CF84444A6EB0806ECE7EC
S31520253D70606A00F04070B0F1807F70470060CC40CB
S31520253D80F82D2720F7FFFFF820A1070000CA9A3B28
S31520253D9030B50024491E032903462ED8DFE801F035
S31520253DA002050E1A13F8014B27E05C781978002AAC
S31520253DB014BF44EA012441EA04241EE05C789D7858
S31520253DC0197824021AB90C4344EA054415E044EA35
S31520253DD0014411E0DD78997858781C7832B944EA7F
S31520253DE0002444EA014444EA056406E02246040404
S31520253DF044EA026444EA01242C43204630BD0000CF
S31520253E0030B50C0C0D0A521E032A21D8DFE802F004
S31520253E1002050C1500F8011B30BD13B9017045703C
S31520253E2030BD0570417030BD1BB901704570847059
S31520253E3030BD04704570817030BD0A0E23B90170DE
S31520253E4045708470C27030BD027044708570C17013
S31520253E5030BD00000094357700CA64D60000CA9A82
S31520253E60033F00010102040810204080002200F0B3
S31520253E70A5B830B4002513E050F8042BD30744BF4A
S31520253E80A9F101039A18091F042942F8045BFAD2DD
S31520253E9013468C0744BF15809B1CC90748BF1D7038
S31520253EA050F8041B0029E7D130BC7047D3BBD9B1C4
S31520253EB0B2F5803F5BD2022A1ED98C46B1FBF2F1A0
S31520253EC002FB11C31B0443EA1043B3FBF2FC02FB9E
S31520253ED01C3380B240EA0343B3FBF2F002FB1032D7
S31520253EE040EA0C4000237047022A05D98446B0FBB8
S31520253EF0F2F002FB10C270474AB105D100F001024B
S31520253F0049085FEA3000704700220023704700F0F9
S31520253F106FB80B000200002100207047F7D300223E
S31520253F2000237047904271EB030CF2D370B5B1FA9A
S31520253F3081F4B3FA83F52C1BA340C4F1200532FA6C
S31520253F4005F63343A2405FF00046E64002E05B08D3
S31520253F505FEA3202841A71EB030524BF20462946DF
S31520253F607641F4D302000B003000002170BD70B5D8
S31520253F70B1FA81F4B2FA82F5C4F120046419B4F1B8
S31520253F802006DAD3B2405FF00044F440002502E053
S31520253F9052085FEA3303C61A71EB020E24BF304658
S31520253FA0714664416D41F3D302000B0020002900A0
S31520253FB070BD000062F30F2262F31F4200B500BFD9
S31520253FC0130096469446103928BFA0E80C50FAD8F7
S31520253FD05FEA417C28BF0CC048BF40F8042BC9079F
S31520253FE028BF20F8022B48BF00F8012B00BD000072
S31520253FF070470000DFF8A0180A69D16800200860FC
S3152025400070477CB5DFF89068F06900248DF800406C
S315202540104569002D4DD03169C9680A68012A37D0EE
S3152025402001F108026C680DF10203091DA047040061
S315202540301FBF42F21270844242F213718C4238D14C
S31520254040BDF802004FF2F001884232D13069C268AC
S31520254050916800292DD0546823781D0007D0162B6A
S3152025406005DA806800EBC305A5F1080000E00020ED
S31520254070106300281CBF0268002A03D020469047DB
S31520254080002412E042F21074194600F0EEFA10E0F0
S31520254090086B58B1416811B16846884704460CB16A
S315202540A0002003E09DF8000000B101203169CA688F
S315202540B01060204676BD80B50178002000F004FBEF
S315202540C0DFF8D417C86941690A699047022000F0AC
S315202540D0FFFBBFF34F8FDFF8C417DFF8C4070A6845
S315202540E002F4E06202430A60BFF34F8F00BFFDE76B
S315202540F0DFF8A4070269D06824210C30FFF7B6BE65
S3152025410010B50446606809380AD0F7380ED0401E07
S3152025411009D00F380DD0103811D0401E0CD011E003
S3152025412000F071FE0FE001F0DDFA0CE001F0B1FFA1
S3152025413009E002F0F5FA06E002F0C4FD03E003F0FB
S31520254140B8F800E0042040E070B5DFF84C371D684C
S31520254150EE690446E268A1686068B0471DE210B59D
S3152025416000F0C7F8DFF830070169C8686168016182
S31520254170082280F820200020217800F0A5FABDE825
S31520254180104003F0FBBA7CB5DFF80C47E568002222
S31520254190019200926B4681684068AE6801AAC0B23A
S315202541A0B0472269D36800211961009A019992089E
S315202541B000F094FA73BD10B5DFF8DC26D368DA68EB
S315202541C004466068A168C0B290472178BDE81040B2
S315202541D07AE21CB5044604206168092903D1A06822
S315202541E000F01FFC13E0C1F3032101290FD16068DC
S315202541F0694603F0ACFC50B9DFF89C168A68009B0B
S31520254200A06814214B43D1180A691169884721785A
S3152025421000F05AFA13BD10B500F06BF800F060F8DF
S31520254220042200F057F8D0E77CB5DFF86C66DFF876
S3152025423074460546FFF75CFF3169CA68132082F864
S31520254240200000203169CA6882F82100E868A8B9CB
S31520254250A86821280DD22060696861603269D168F5
S31520254260086104F108004861012281F821200020F7
S3152025427000E00420297800F027FA73BD012818D1FB
S3152025428001A90020009101906268216804F1280384
S3152025429004F1080003F03BFE48B93169C968019A43
S315202542A00A6104F1280302224B6181F82120019914
S315202542B001E00021042000F02CFA73BD10B500F092
S315202542C018F800F00DF8032200F004F8A168BDE8DF
S315202542D0104031E26168416180F820200020704736
S315202542E0DFF8B4050169C868E1688161A2680261C1
S315202542F070470446FCE638B5DFF89C550446286900
S31520254300C06800214161016190F82000042804D16C
S3152025431029684869804704B90446002C01BF2869C5
S31520254320C16891F82000152811D14A6ADFF8780549
S31520254330012A04D18A6AC96A03F0FBFF06E0052A09
S3152025434005D14FF49E61103004F0A4F80446286860
S315202543508169884704B904462869C16891F82010DF
S3152025436000F083F942F21270844201BF2969C86898
S3152025437090F82010082903D1BDE8314003F041BA31
S3152025438031BDDFF814150A69D16891F82110012964
S3152025439008BF00F008B8022908BF00F07FB8002121
S315202543A00170002070472DE9FE4300F0E7F820B97B
S315202543B000213170FFF79FFF6DE001203070D1F885
S315202543C018900D69D1F814800020009002ABF86969
S315202543D04469D4F804C06A4601A9E047040002BF0F
S315202543E0BDF808004AF6AA21884205D0F869416910
S315202543F0CA689047204603E0009830B942F21270E9
S31520254400FFF779FF0020307046E0A84288BF28466E
S3152025441039690090C86890F82010082912D1019989
S31520254420C160009AC2610099019803F0B1F904464A
S3152025443042F27D7084421CBF42F274718C4217D1A0
S31520254440002415E0132918BF1529404606D1009AC0
S31520254450019904F06DF80098804409E03C68019A9A
S315202544600099D4F80CC04B46E04700990446884469
S3152025447000982D1A04D04CB1F8694169CA6890472D
S315202544802046FFF738FF0020307004E03969C968D7
S315202544900D61C1F814800020BDE8FE832DE9FE4F6D
S315202544A000F06CF820B900213170FFF724FF62E077
S315202544B0012030704AF6AA298A69DFF8F0A30192ED
S315202544C00D694C69C8680090F86991F820B0416952
S315202544D04A6990478046A845009888BFA846B0B126
S315202544E042460146504604F023F8F869D0F814C010
S315202544F0A5EB08054246DCF808804B465146C047C1
S3152025450005B1A0B3FFF7F7FE0020307033E0BBF1ED
S31520254510030F19D1D7F800C0019BDCF804B0524609
S3152025452041462046D8475FEA000B4444DDD0F8694A
S315202545304469A5684B4600225146A8475846FFF7A9
S31520254540DAFE0020307017E0BBF1130F214605D186
S315202545504246504603F0ECFF4444C6E73869C26814
S3152025456092F8200015284444BFD14246BAE7386937
S31520254570C068056144610020BDE8FE8FC64F06460A
S315202545803869C1680869704770B5C34B1D682E699F
S315202545900446E268A1686068B0472178BDE8704086
S315202545A092E02DE9F0410546C14F6E68D5F8088081
S315202545B0E8683860002418B104F000F800B904240E
S315202545C0304603F0E4FF00B9042400F04DF89CB9E9
S315202545D07E60002000F07CF9C7F80880386818B17D
S315202545E080F3088880F30988796840468847BDE89E
S315202545F0F041002000F06CB9BDE8F08138B50446BD
S31520254600606803F0C4FF08B9042005E06568012029
S3152025461000F05EF9A068A8472178BDE8344053E02C
S31520254620F8B5054604F01BF8A24EAB68696805F176
S315202546300C02304604F028F8040010D1EF6800203B
S315202546400090AB6869686A46304604F05FF8040036
S3152025465005D100983840874218BF44F6E96404F00E
S3152025466004F800F001F8F1BD297820462CE03EB566
S315202546700021CDE90011044603F0F1FFA368616806
S315202546808C486A4604F042F8054603F0EEFFA268F8
S315202546906946284600F055F837BD10B5FFF729FE9F
S315202546A07D480169C968A2680A61102263684B6141
S315202546B081F820200069C268E16882F8211000204F
S315202546C0A168BDE8104066E03EB5002302918DF82D
S315202546D001308DF802300190A0221EE038B5002445
S315202546E088B0A7238DF801400190541C8DF80340EE
S315202546F000258DF800308DF8025000206C4605E007
S3152025470051F8203004EB8005401CAB609042F7D34E
S3152025471033E03EB500F044F8B3225F49C8698DF8E9
S31520254720002002238DF803304FF2F0034469A56853
S315202547300C226946A84737BD3EB500F031F8A3229D
S31520254740EBE738B5002488B0AF238DF80140002546
S3152025475002248DF800308DF802508DF80340019003
S3152025476050B99DF80330029203EB92048DF803404D
S3152025477003A803F0DDFE00E002954748C069446999
S315202547809DF80320A56892004FF2F003121D694675
S31520254790A84709B030BD3EB500F002F8B022BCE7E7
S315202547A0002401238DF8024002918DF801300190D5
S315202547B070470000FEB50546374E696832693A4F7F
S315202547C00024019400940020D368062983F821002B
S315202547D060D8DFE801F0040A2A2F33374B0003F08F
S315202547E084FD2978FFF770FFF7BDE868112807D3E0
S315202547F004243069C1680969204600F063F8F7BDAD
S31520254800FFF776FC00F058F801223069C068E96880
S315202548100161476180F821203069C0686968416255
S31520254820AA688262E968C162E3E7AA68E96803F0B3
S3152025483080FDD6E7A86803F0D4FDD2E7A86803F063
S31520254840E9FDCEE7FFF754FC00F036F84FF49E61DC
S315202548503069C068016107F110020121426180F8A3
S3152025486021103169CA6868685062C2E7FFF740FCA3
S31520254870694601A803F0F8FD0400BAD100F01CF81A
S315202548803069C068009901610221019A426180F848
S315202548902110AEE70420A4E7100027200CED00E028
S315202548A00400FA05642D272064282720682427203C
S315202548B0E42D272000C0CA403169CA68152082F810
S315202548C0200070473EB5FFF76BFFB52225E7000090
S315202548D070B5012804461DD00025114E05E0701817
S315202548E0C168896801B188476D1C182169437058AC
S315202548F00028F4D174B903F0B2FEFCF768FF03F063
S315202549007FFF0849002008600120FDF7A8FBFEF758
S3152025491080F962B6BFF36F8FBFF34F8F70BD00BF8F
S315202549201C14252008ED00E0BFF34F8FDFF88025E6
S3152025493002E01060203920300129FADABFF34F8FA3
S31520254940BFF36F8F704730B5DFF868351A7812B9FF
S3152025495042F2DD7030BD0FF28052D3F8183452F86A
S315202549602350DFF85445142255436359C01808604F
S31520254970002030BD10B5DFF83C350FF25C52D3F858
S31520254980184452F82430DFF8301514225343C958D9
S31520254990401A10BD10B5002937D0DFF8182502F5A5
S315202549A0836302F2DC5460B1012813D002281DD07E
S315202549B0032820D0042820D0052820D0102821D02F
S315202549C023E01078002814BF002042F2DD7008600D
S315202549D0002010BD0FF200501B6850F82340DFF849
S315202549E0D8241420444312590A60F1E700F00FF821
S315202549F0A40A0C60ECE72268F6E76068E7E72069F9
S31520254A0018B1E4E700F003F8F3E7042010BD5C6D48
S31520254A10986DDA6D0419186E14190419704701203A
S31520254A2070472DE9F04FADF5017D054603F0AFFD25
S31520254A3000284FF0040922D005F2FF1003F0A7FD28
S31520254A4000281CD02868DFF86CA401460B0D40F6FB
S31520254A50F947BB422A460AF5836611D1C1F31300CD
S31520254A6000280CDD04280AD23268C1F313019142AD
S31520254A7003D0306000208AF800004FF00009DCE0E2
S31520254A801427090F0C290FF25048DFF82C441CD186
S31520254A9030680AF21C4104F033FB5FEA0009EED1A7
S31520254AA000208AF800000AF21C41306803F0C2FE75
S31520254AB05FEA0009E3D13068FEF7E9FD6946102053
S31520254AC0FFF768FF002878D0B6E0DFF8F02390427C
S31520254AD007D14FF4007229460AF21C4003F028FD1F
S31520254AE0DEE7DFF8DC138842C9D19AF800000028D2
S31520254AF0C5D00AF21C40FEF7A1F900900AF21C4BFC
S31520254B000AF2DC55D8B1D9464FF40072494601A898
S31520254B1003F00EFD706C20F0040070640DF1040B7B
S31520254B2029684908296049466868400868602869CF
S31520254B3040082861306803F07DFE002871D1306851
S31520254B4058F820207A434FF40071A05800F580604C
S31520254B5003F04CF8002860D0A87A98B1002001AB44
S31520254B600AEB000101F21C410DF104094A781A5479
S31520254B708144097889F80110801CB0F5007FEFD390
S31520254B800DF1040B306858F820307B435A46E058FF
S31520254B904FF4007100F5806000F05FF85FEA0009A8
S31520254BA02BD0306858F8202057434FF40071E05910
S31520254BB000F5806000F06BF931E0306858F8201058
S31520254BC00FF208334F43E11901228A6053F820203A
S31520254BD00A6000988218521E4A600121A165009814
S31520254BE0216DB0F1806F88BF4FF080604018401E40
S31520254BF0606501208AF800001FE000F092F85FEA40
S31520254C0000090CD0306858F8202069685743E059A8
S31520254C1000F5806000F0CBF801E042F2DB790098C0
S31520254C2058B1A84C4FF400725946204603F080FC13
S31520254C303068214603F0FEFD814648460DF5017D67
S31520254C40BDE8F08F10B59B4C237813B942F2DD7061
S31520254C5010BDBDE8104005F09DBB2DE9F843954FC5
S31520254C60054638780C46914618B942F2DD70BDE8DE
S31520254C70F28384B3787868B9D7F8DC05401E0542D7
S31520254C8002D044F68960F2E7012000217870B960C8
S31520254C907D6004E0B86879680818A84216D1B868F6
S31520254CA0D7F8DC852118414534BF2646A8EB0006D2
S31520254CB0384432464946103003F03AFCB86875190F
S31520254CC0A41B30184045B860B144D2D100F029F84C
S31520254CD00028CED0CBE70020C9E776B50D46754905
S31520254CE00646087810B942F2DD7076BDAC08A400D8
S31520254CF005F0030507E001AA04213046FFF7ADFF9D
S31520254D0060B9361D241F002CF5D12DB101AA2946BF
S31520254D103046FFF7A2FF08B900F003F876BD02F06A
S31520254D2065BF38B5634D6878002400283DD06C7062
S31520254D30A868D5F8DC45A04206D0211A05F110032E
S31520254D40FF22184405F03EFB68682146FFF7E7FF5A
S31520254D5010B942F2DB7032BD6C6803F080FC204628
S31520254D60FFF708FE0246D5F8180405F1100305F2CB
S31520254D701C4103F011FE044603F077FC00206870E1
S31520254D80A86094B900F03BF804D5D5F8DC156868F9
S31520254D90FFF7CAFDD5F8DC25686805F1100105F071
S31520254DA01BFB10B144F68A6032BD204632BD70B554
S31520254DB0404A0446107810B942F2DD7070BDD2F80B
S31520254DC0E055684200EA04060C1964420440644210
S31520254DD0A41B2146304600F05AF878B900F00FF882
S31520254DE003D529463046FFF79FFD21463046FFF756
S31520254DF096FF10B944F68A6070BD002070BD3248F2
S31520254E000168CA037047E0B52A4A107810B942F2DC
S31520254E10DD700EBDD2F8180402F21C4103F008FEFF
S31520254E20C8B901A90120FFF7B5FDA0B9694610200B
S31520254E30FFF7B0FD78B9FFF7E2FF03D50099019872
S31520254E40FFF772FD0099019802F0D0FE10B944F6BD
S31520254E508A600EBD00200EBD0020704710B500F0DB
S31520254E600BF8BDE81040C01AF7E610B500F004F897
S31520254E70BDE81040C01A30E70F4BDC6B1B6D2018A0
S31520254E8070470D4AD36B126D1818801A8FE738B5DF
S31520254E900C46FFF76FFD0246064DD5F81804234626
S31520254EA005F21C4101B0BDE8304005F03AB90000B5
S31520254EB05CEF00E04800272064062720464346422B
S31520254EC00F0000F06404272014ED00E00000000008
S31520254ED000000030000000600000000003000000F4
S31520254EE0050000002DE9FE43DFF8304C01206060E7
S31520254EF0FDF728FE022849D142F2301025182846EA
S31520254F0005F08EFA00285BD1284600F09EFD002864
S31520254F1056D1694601A805F06FFA009EDDF8048072
S31520254F200027B94601E07F1CB144B8B240452DD2B1
S31520254F3004F111024FF48061484600F036FD002821
S31520254F4002BFD4F81500DFF8D81B884204BFD4F851
S31520254F5019000128E7D14FF4806104F1110000F0F2
S31520254F608DFD0028DFD042F2300026184FF48062CE
S31520254F7004F11101304603F0DBFA284600F065FDE1
S31520254F80F0B9304600F0A3FC10B119E0012017E056
S31520254F900120207002A940F2011002F0D8FD78B92F
S31520254FA0029ADFF8801B42F2F02314204243E018B0
S31520254FB011440468CC60C269806842438A60002017
S31520254FC0BDE8FE832DE9FE4F0424054603F0DFFACE
S31520254FD000282E4605D006F2FF36304603F0D7FAAE
S31520254FE0002800F0A4812A68DFF8306BDFF830AB83
S31520254FF042F22801100F771842F2F0230C2842F2AC
S31520255000700806EB03094FF4806B40F0CC80002D09
S3152025501014D002F00F02D21E082A4CD242F23000BA
S3152025502059463044FEF722FF686803F0B0FA002877
S3152025503004D06868083003F0AAFA002878D06A6870
S315202550401068010F0C290ED1C0F3035018B1106832
S31520255050C0F30350706042F230103118706805F0A5
S31520255060E5FC040064D12868C0F3032000281CBF72
S3152025507001280020B060286800F00F01A1F1020C5C
S31520255080BCF1080F54D8C0F30352032AC0F303609A
S315202550900CD8DFE802F009070402202208E04FF4A5
S315202550A0807205E0802203E0402201E0202A3FD3BA
S315202550B000283DD005283BD23A837883C7F80CA013
S315202550C00121396112FB00F37B610146C7F81CC01B
S315202550D000200EE005F1080A06EBC00E3AF820B0AE
S315202550E05C43C64403FB0BF3CEF80430CEF80040D0
S315202550F0401C604513D2D9F8083005EB800430B919
S31520255100B2FBF3FE01FB0EFE4FEA4E0E04E0B4F889
S3152025511006E0B4F804A0D64464897445DAD242F26E
S3152025512034004FF47F71304400F0B5FCB86000247C
S31520255130002C07D10020307042F23011701800F073
S3152025514084FC040040F0F380DFF8DC59284600F083
S31520255150BEFBC8B1DFF8D449FF224FF4846120462F
S31520255160FEF728FFDFF8C809606001210020A1602D
S31520255170206140F21C41201D00F08DFC2060284630
S3152025518000F0D2FB040075D17D8B3C8BD9F8081015
S3152025519005FB04F0B0FBF1F14FF0000A44F629682F
S315202551A00091D3466AE0696851450FD1594628466C
S315202551B000F064FC00285DD00020307042F23003D8
S315202551C05A462946F01803F0B3F9B5E70B2851D1ED
S315202551D00420002D1CBF317800294AD0C2F3036153
S315202551E001290DD0002944D1284605F08FFD10B17F
S315202551F0002139703DE0AA687A6001233B7038E0AA
S315202552003978B1B3297801F00F01082931D206EB77
S31520255210C100404469464468D9F800507E68D0F8D4
S31520255220008001A805F0ABFD05FB086808BB0098A2
S315202552303618B6FBF5F0844238BF42F2D87018D31B
S31520255240681E18EA000F18BF42F2DE7011D1B8FB8E
S31520255250F5F40121204600F019FB10B942F2DB7046
S3152025526007E0019A0099204600F0BBFB08B900F01B
S31520255270CBF904465BE00AF1010AA344AA4538D2B4
S3152025528042F23000371806F111024FF48061584654
S3152025529000F08BFB40B94FF48062394606F11100A8
S315202552A005F09AF80028E6D0DDF800A04FF0000B8F
S315202552B004E0584600F0DAFB0BF1010BD345F8D371
S315202552C04FF0000AD346AA4515D23A464FF48061B7
S315202552D0584600F086FB00280FBF4FF00008D9F866
S315202552E00800BBFBF0F000F0C1FB0AF1010AA3443C
S315202552F0E9E74FF000085FEA080418D1012030704D
S31520255300694640F2011002F022FC04000FD10099D3
S31520255310DFF81028D9F800301420414355180832D3
S31520255320EB60D9F81C60D9F808004643565020462C
S31520255330BDE8FE8F2DE9FE4F92460425BAF1000FD2
S315202553400346894605D0DFF8D467307810B942F26E
S31520255350DD7580E042F2F0203718B0683968019172
S3152025536001281AD1307C50B9F869834273D2F3606B
S315202553700121B868317443430024009314E0F06872
S31520255380BA68424301FB02331B1A0198B3FBF1F19C
S3152025539000FB11331C46009106E00846B3FBF0F0CE
S315202553A001FB10331C460090684600F0A8FB41F20D
S315202553B0110812E006F1110001192A46504603F07C
S315202553C0B7F801992C198C42A9EB0509AA4403D3D0
S315202553D0641A0099491C00910025B9F1000F0CD1BA
S315202553E036E0084600F068FBF8B142F22400315831
S315202553F0491C315000985844009041F214050099D3
S31520255400725916F808008A4200D138BBD7F808B059
S31520255410B1FBFBF118B1B2FBFBF0814205D0F8694F
S315202554208142DED342F2D87513E0002006F8080023
S3152025543006F11102DDF800B03968584600F0B5FAB4
S3152025544020B9012106F8081046F805B0050005D033
S315202554500DB1002030742846BDE8FE8F019809EB52
S31520255460040188422CBF4D46051BA3E72DE9F84F9D
S3152025547093460424BBF1000F05D0DFF8A0763A78B1
S3152025548012B942F2DD749CE042F2F022064642F23F
S315202554901803B868BA58FD1801289046894642D17E
S315202554A0387CA0B9DFF88C06C1698E42EBD2002262
S315202554B02A7001233B74FE60924680684643314616
S315202554C0DFF87406009608FB0191016031E042F26F
S315202554D0F0213944F8688B68DFF85C16434302FBD4
S315202554E00362121AB2FBF8F0009008FB102A08680E
S315202554F0824213D0287818B100F054F904005ED1E1
